{"contracts/BudgetAllocation.sol":{"BudgetManager":{"abi":[{"anonymous":false,"inputs":[{"indexed":true,"internalType":"address","name":"user","type":"address"},{"indexed":false,"internalType":"string","name":"category","type":"string"},{"indexed":false,"internalType":"string","name":"subDivision","type":"string"},{"indexed":false,"internalType":"uint256","name":"amount","type":"uint256"},{"indexed":false,"internalType":"uint256","name":"timestamp","type":"uint256"}],"name":"TransactionMade","type":"event"},{"inputs":[{"internalType":"string","name":"category","type":"string"},{"internalType":"string","name":"subName","type":"string"},{"internalType":"uint256","name":"amount","type":"uint256"}],"name":"addSubDivision","outputs":[],"stateMutability":"nonpayable","type":"function"},{"inputs":[{"internalType":"address","name":"user","type":"address"}],"name":"getBudgetSummary","outputs":[{"internalType":"uint256","name":"income","type":"uint256"},{"internalType":"uint256","name":"dailyLimit","type":"uint256"},{"internalType":"uint256","name":"needs","type":"uint256"},{"internalType":"uint256","name":"wants","type":"uint256"},{"internalType":"uint256","name":"savings","type":"uint256"}],"stateMutability":"view","type":"function"},{"inputs":[{"internalType":"string","name":"category","type":"string"}],"name":"getSubDivisions","outputs":[{"internalType":"string[]","name":"names","type":"string[]"},{"internalType":"uint256[]","name":"amounts","type":"uint256[]"},{"internalType":"uint256[]","name":"percentages","type":"uint256[]"},{"internalType":"uint256[]","name":"spent","type":"uint256[]"}],"stateMutability":"view","type":"function"},{"inputs":[{"internalType":"uint256","name":"income","type":"uint256"}],"name":"setInitialBudget","outputs":[],"stateMutability":"nonpayable","type":"function"},{"inputs":[{"internalType":"string","name":"category","type":"string"},{"internalType":"uint256","name":"amount","type":"uint256"}],"name":"spendFromCategory","outputs":[],"stateMutability":"nonpayable","type":"function"},{"inputs":[{"internalType":"uint256","name":"amount","type":"uint256"}],"name":"spendFromGeneral","outputs":[],"stateMutability":"nonpayable","type":"function"},{"inputs":[{"internalType":"string","name":"category","type":"string"},{"internalType":"string","name":"subName","type":"string"},{"internalType":"uint256","name":"amount","type":"uint256"}],"name":"spendFromSubDivision","outputs":[],"stateMutability":"nonpayable","type":"function"},{"inputs":[{"internalType":"bool","name":"state","type":"bool"}],"name":"toggleStrictMode","outputs":[],"stateMutability":"nonpayable","type":"function"},{"inputs":[{"internalType":"address","name":"","type":"address"}],"name":"userBudgets","outputs":[{"internalType":"uint256","name":"totalIncome","type":"uint256"},{"internalType":"uint256","name":"dailyLimit","type":"uint256"},{"internalType":"uint256","name":"dailySpent","type":"uint256"},{"internalType":"uint256","name":"lastSpendDate","type":"uint256"},{"internalType":"bool","name":"strictMode","type":"bool"}],"stateMutability":"view","type":"function"}],"evm":{"bytecode":{"linkReferences":{},"object":"608060405234801561001057600080fd5b50612562806100206000396000f3fe608060405234801561001057600080fd5b50600436106100935760003560e01c806370f2e4a91161006657806370f2e4a9146101205780637fa54d6e1461013c578063a4a50d2914610170578063b6bb6f09146101a3578063fdfaf8b9146101bf57610093565b8063052bc2451461009857806335186088146100b457806338b54df8146100d0578063608937a6146100ec575b600080fd5b6100b260048036038101906100ad919061133c565b6101db565b005b6100ce60048036038101906100c991906113a1565b610590565b005b6100ea60048036038101906100e59190611514565b6105ec565b005b610106600480360381019061010191906115fd565b610768565b604051610117959493929190611639565b60405180910390f35b61013a6004803603810190610135919061133c565b610835565b005b610156600480360381019061015191906115fd565b610afe565b60405161016795949392919061169b565b60405180910390f35b61018a600480360381019061018591906116ee565b610b41565b60405161019a9493929190611936565b60405180910390f35b6101bd60048036038101906101b89190611514565b610ef7565b005b6101d960048036038101906101d49190611997565b6110fe565b005b60008060003373ffffffffffffffffffffffffffffffffffffffff1673ffffffffffffffffffffffffffffffffffffffff168152602001908152602001600020905060008160040160405161022f90611a4a565b9081526020016040518091039020600101548260040160405161025190611a4a565b90815260200160405180910390206000015461026d9190611a8e565b905060008260040160405161028190611b0e565b908152602001604051809103902060010154836004016040516102a390611b0e565b9081526020016040518091039020600001546102bf9190611a8e565b90506000836004016040516102d390611b6f565b908152602001604051809103902060010154846004016040516102f590611b6f565b9081526020016040518091039020600001546103119190611a8e565b905060008183856103229190611b84565b61032c9190611b84565b905085811015610371576040517f08c379a000000000000000000000000000000000000000000000000000000000815260040161036890611c3b565b60405180910390fd5b61037b8587611237565b60008560040160405161038d90611b6f565b908152602001604051809103902060000154866004016040516103af90611b0e565b908152602001604051809103902060000154876004016040516103d190611a4a565b9081526020016040518091039020600001546103ed9190611b84565b6103f79190611b84565b9050600081888860040160405161040d90611a4a565b9081526020016040518091039020600001546104299190611c5b565b6104339190611ccc565b9050600082898960040160405161044990611b0e565b9081526020016040518091039020600001546104659190611c5b565b61046f9190611ccc565b90506000818361047f9190611b84565b8a61048a9190611a8e565b9050828960040160405161049d90611a4a565b908152602001604051809103902060010160008282546104bd9190611b84565b9250508190555081896004016040516104d590611b0e565b908152602001604051809103902060010160008282546104f59190611b84565b92505081905550808960040160405161050d90611b6f565b9081526020016040518091039020600101600082825461052d9190611b84565b925050819055503373ffffffffffffffffffffffffffffffffffffffff167f13657dea4779547e9c75d813b2cc70322cd3808cd575dd2381c52bb5e932643e8b4260405161057c929190611d6f565b60405180910390a250505050505050505050565b806000803373ffffffffffffffffffffffffffffffffffffffff1673ffffffffffffffffffffffffffffffffffffffff16815260200190815260200160002060060160006101000a81548160ff02191690831515021790555050565b60008060003373ffffffffffffffffffffffffffffffffffffffff1673ffffffffffffffffffffffffffffffffffffffff1681526020019081526020016000209050600081600401856040516106429190611def565b90815260200160405180910390209050600081600201856040516106669190611def565b90815260200160405180910390209050838160020154826001015461068b9190611a8e565b10156106cc576040517f08c379a00000000000000000000000000000000000000000000000000000000081526004016106c390611e52565b60405180910390fd5b6106d68385611237565b838160020160008282546106ea9190611b84565b92505081905550838260010160008282546107059190611b84565b925050819055503373ffffffffffffffffffffffffffffffffffffffff167f13657dea4779547e9c75d813b2cc70322cd3808cd575dd2381c52bb5e932643e878787426040516107589493929190611eab565b60405180910390a2505050505050565b6000806000806000806000808873ffffffffffffffffffffffffffffffffffffffff1673ffffffffffffffffffffffffffffffffffffffff168152602001908152602001600020905080600001548160010154826004016040516107cb90611a4a565b908152602001604051809103902060000154836004016040516107ed90611b0e565b9081526020016040518091039020600001548460040160405161080f90611b6f565b908152602001604051809103902060000154955095509550955095505091939590929450565b60008111610878576040517f08c379a000000000000000000000000000000000000000000000000000000000815260040161086f90611f4a565b60405180910390fd5b60008060003373ffffffffffffffffffffffffffffffffffffffff1673ffffffffffffffffffffffffffffffffffffffff1681526020019081526020016000209050818160000181905550601e826108d09190611ccc565b816001018190555060018160060160006101000a81548160ff021916908315150217905550600060646032846109069190611c5b565b6109109190611ccc565b905060006064601e856109239190611c5b565b61092d9190611ccc565b90506000818361093d9190611b84565b856109489190611a8e565b9050828460040160405161095b90611a4a565b908152602001604051809103902060000181905550818460040160405161098190611b0e565b90815260200160405180910390206000018190555080846004016040516109a790611b6f565b9081526020016040518091039020600001819055508360050180600181540180825580915050600190039060005260206000200160006040518060400160405280600581526020017f4e6565647300000000000000000000000000000000000000000000000000000081525090919091509081610a249190612176565b508360050180600181540180825580915050600190039060005260206000200160006040518060400160405280600581526020017f57616e747300000000000000000000000000000000000000000000000000000081525090919091509081610a8d9190612176565b508360050180600181540180825580915050600190039060005260206000200160006040518060400160405280600781526020017f536176696e67730000000000000000000000000000000000000000000000000081525090919091509081610af69190612176565b505050505050565b60006020528060005260406000206000915090508060000154908060010154908060020154908060030154908060060160009054906101000a900460ff16905085565b60608060608060008060003373ffffffffffffffffffffffffffffffffffffffff1673ffffffffffffffffffffffffffffffffffffffff16815260200190815260200160002060040186604051610b989190611def565b908152602001604051809103902090506000816003018054905090508067ffffffffffffffff811115610bce57610bcd6113e9565b5b604051908082528060200260200182016040528015610c0157816020015b6060815260200190600190039081610bec5790505b5095508067ffffffffffffffff811115610c1e57610c1d6113e9565b5b604051908082528060200260200182016040528015610c4c5781602001602082028036833780820191505090505b5094508067ffffffffffffffff811115610c6957610c686113e9565b5b604051908082528060200260200182016040528015610c975781602001602082028036833780820191505090505b5093508067ffffffffffffffff811115610cb457610cb36113e9565b5b604051908082528060200260200182016040528015610ce25781602001602082028036833780820191505090505b50925060005b81811015610eed576000836003018281548110610d0857610d07612248565b5b906000526020600020018054610d1d90611f99565b80601f0160208091040260200160405190810160405280929190818152602001828054610d4990611f99565b8015610d965780601f10610d6b57610100808354040283529160200191610d96565b820191906000526020600020905b815481529060010190602001808311610d7957829003601f168201915b5050505050905060008460020182604051610db19190611def565b90815260200160405180910390209050806000018054610dd090611f99565b80601f0160208091040260200160405190810160405280929190818152602001828054610dfc90611f99565b8015610e495780601f10610e1e57610100808354040283529160200191610e49565b820191906000526020600020905b815481529060010190602001808311610e2c57829003601f168201915b5050505050898481518110610e6157610e60612248565b5b60200260200101819052508060010154888481518110610e8457610e83612248565b5b6020026020010181815250508060030154878481518110610ea857610ea7612248565b5b6020026020010181815250508060020154868481518110610ecc57610ecb612248565b5b60200260200101818152505050508080610ee590612277565b915050610ce8565b5050509193509193565b6000835111610f3b576040517f08c379a0000000000000000000000000000000000000000000000000000000008152600401610f329061230b565b60405180910390fd5b6000825111610f7f576040517f08c379a0000000000000000000000000000000000000000000000000000000008152600401610f7690612377565b60405180910390fd5b60008060003373ffffffffffffffffffffffffffffffffffffffff1673ffffffffffffffffffffffffffffffffffffffff16815260200190815260200160002060040184604051610fd09190611def565b908152602001604051809103902090508181600001541015611027576040517f08c379a000000000000000000000000000000000000000000000000000000000815260040161101e906123e3565b60405180910390fd5b6000816000015460648461103b9190611c5b565b6110459190611ccc565b905060405180608001604052808581526020018481526020016000815260200182815250826002018560405161107b9190611def565b9081526020016040518091039020600082015181600001908161109e9190612176565b5060208201518160010155604082015181600201556060820151816003015590505081600301849080600181540180825580915050600190039060005260206000200160009091909190915090816110f69190612176565b505050505050565b60008060003373ffffffffffffffffffffffffffffffffffffffff1673ffffffffffffffffffffffffffffffffffffffff1681526020019081526020016000209050600081600401846040516111549190611def565b9081526020016040518091039020905082816001015482600001546111799190611a8e565b10156111ba576040517f08c379a00000000000000000000000000000000000000000000000000000000081526004016111b19061244f565b60405180910390fd5b6111c48284611237565b828160010160008282546111d89190611b84565b925050819055503373ffffffffffffffffffffffffffffffffffffffff167f13657dea4779547e9c75d813b2cc70322cd3808cd575dd2381c52bb5e932643e8585426040516112299392919061246f565b60405180910390a250505050565b8160060160009054906101000a900460ff16156112d3576201518082600301546112619190611b84565b42111561127c57600082600201819055504282600301819055505b81600101548183600201546112919190611b84565b11156112d2576040517f08c379a00000000000000000000000000000000000000000000000000000000081526004016112c99061250c565b60405180910390fd5b5b808260020160008282546112e79190611b84565b925050819055505050565b6000604051905090565b600080fd5b600080fd5b6000819050919050565b61131981611306565b811461132457600080fd5b50565b60008135905061133681611310565b92915050565b600060208284031215611352576113516112fc565b5b600061136084828501611327565b91505092915050565b60008115159050919050565b61137e81611369565b811461138957600080fd5b50565b60008135905061139b81611375565b92915050565b6000602082840312156113b7576113b66112fc565b5b60006113c58482850161138c565b91505092915050565b600080fd5b600080fd5b6000601f19601f8301169050919050565b7f4e487b7100000000000000000000000000000000000000000000000000000000600052604160045260246000fd5b611421826113d8565b810181811067ffffffffffffffff821117156114405761143f6113e9565b5b80604052505050565b60006114536112f2565b905061145f8282611418565b919050565b600067ffffffffffffffff82111561147f5761147e6113e9565b5b611488826113d8565b9050602081019050919050565b82818337600083830152505050565b60006114b76114b284611464565b611449565b9050828152602081018484840111156114d3576114d26113d3565b5b6114de848285611495565b509392505050565b600082601f8301126114fb576114fa6113ce565b5b813561150b8482602086016114a4565b91505092915050565b60008060006060848603121561152d5761152c6112fc565b5b600084013567ffffffffffffffff81111561154b5761154a611301565b5b611557868287016114e6565b935050602084013567ffffffffffffffff81111561157857611577611301565b5b611584868287016114e6565b925050604061159586828701611327565b9150509250925092565b600073ffffffffffffffffffffffffffffffffffffffff82169050919050565b60006115ca8261159f565b9050919050565b6115da816115bf565b81146115e557600080fd5b50565b6000813590506115f7816115d1565b92915050565b600060208284031215611613576116126112fc565b5b6000611621848285016115e8565b91505092915050565b61163381611306565b82525050565b600060a08201905061164e600083018861162a565b61165b602083018761162a565b611668604083018661162a565b611675606083018561162a565b611682608083018461162a565b9695505050505050565b61169581611369565b82525050565b600060a0820190506116b0600083018861162a565b6116bd602083018761162a565b6116ca604083018661162a565b6116d7606083018561162a565b6116e4608083018461168c565b9695505050505050565b600060208284031215611704576117036112fc565b5b600082013567ffffffffffffffff81111561172257611721611301565b5b61172e848285016114e6565b91505092915050565b600081519050919050565b600082825260208201905092915050565b6000819050602082019050919050565b600081519050919050565b600082825260208201905092915050565b60005b8381101561179d578082015181840152602081019050611782565b60008484015250505050565b60006117b482611763565b6117be818561176e565b93506117ce81856020860161177f565b6117d7816113d8565b840191505092915050565b60006117ee83836117a9565b905092915050565b6000602082019050919050565b600061180e82611737565b6118188185611742565b93508360208202850161182a85611753565b8060005b85811015611866578484038952815161184785826117e2565b9450611852836117f6565b925060208a0199505060018101905061182e565b50829750879550505050505092915050565b600081519050919050565b600082825260208201905092915050565b6000819050602082019050919050565b6118ad81611306565b82525050565b60006118bf83836118a4565b60208301905092915050565b6000602082019050919050565b60006118e382611878565b6118ed8185611883565b93506118f883611894565b8060005b8381101561192957815161191088826118b3565b975061191b836118cb565b9250506001810190506118fc565b5085935050505092915050565b600060808201905081810360008301526119508187611803565b9050818103602083015261196481866118d8565b9050818103604083015261197881856118d8565b9050818103606083015261198c81846118d8565b905095945050505050565b600080604083850312156119ae576119ad6112fc565b5b600083013567ffffffffffffffff8111156119cc576119cb611301565b5b6119d8858286016114e6565b92505060206119e985828601611327565b9150509250929050565b600081905092915050565b7f4e65656473000000000000000000000000000000000000000000000000000000600082015250565b6000611a346005836119f3565b9150611a3f826119fe565b600582019050919050565b6000611a5582611a27565b9150819050919050565b7f4e487b7100000000000000000000000000000000000000000000000000000000600052601160045260246000fd5b6000611a9982611306565b9150611aa483611306565b9250828203905081811115611abc57611abb611a5f565b5b92915050565b7f57616e7473000000000000000000000000000000000000000000000000000000600082015250565b6000611af86005836119f3565b9150611b0382611ac2565b600582019050919050565b6000611b1982611aeb565b9150819050919050565b7f536176696e677300000000000000000000000000000000000000000000000000600082015250565b6000611b596007836119f3565b9150611b6482611b23565b600782019050919050565b6000611b7a82611b4c565b9150819050919050565b6000611b8f82611306565b9150611b9a83611306565b9250828201905080821115611bb257611bb1611a5f565b5b92915050565b600082825260208201905092915050565b7f496e73756666696369656e742066756e647320696e20746f74616c206275646760008201527f6574000000000000000000000000000000000000000000000000000000000000602082015250565b6000611c25602283611bb8565b9150611c3082611bc9565b604082019050919050565b60006020820190508181036000830152611c5481611c18565b9050919050565b6000611c6682611306565b9150611c7183611306565b9250828202611c7f81611306565b91508282048414831517611c9657611c95611a5f565b5b5092915050565b7f4e487b7100000000000000000000000000000000000000000000000000000000600052601260045260246000fd5b6000611cd782611306565b9150611ce283611306565b925082611cf257611cf1611c9d565b5b828204905092915050565b7f47656e6572616c00000000000000000000000000000000000000000000000000600082015250565b6000611d33600783611bb8565b9150611d3e82611cfd565b602082019050919050565b50565b6000611d59600083611bb8565b9150611d6482611d49565b600082019050919050565b60006080820190508181036000830152611d8881611d26565b90508181036020830152611d9b81611d4c565b9050611daa604083018561162a565b611db7606083018461162a565b9392505050565b6000611dc982611763565b611dd381856119f3565b9350611de381856020860161177f565b80840191505092915050565b6000611dfb8284611dbe565b915081905092915050565b7f496e73756666696369656e74207375622d6469766973696f6e2066756e647300600082015250565b6000611e3c601f83611bb8565b9150611e4782611e06565b602082019050919050565b60006020820190508181036000830152611e6b81611e2f565b9050919050565b6000611e7d82611763565b611e878185611bb8565b9350611e9781856020860161177f565b611ea0816113d8565b840191505092915050565b60006080820190508181036000830152611ec58187611e72565b90508181036020830152611ed98186611e72565b9050611ee8604083018561162a565b611ef5606083018461162a565b95945050505050565b7f496e636f6d65206d7573742062652067726561746572207468616e207a65726f600082015250565b6000611f34602083611bb8565b9150611f3f82611efe565b602082019050919050565b60006020820190508181036000830152611f6381611f27565b9050919050565b7f4e487b7100000000000000000000000000000000000000000000000000000000600052602260045260246000fd5b60006002820490506001821680611fb157607f821691505b602082108103611fc457611fc3611f6a565b5b50919050565b60008190508160005260206000209050919050565b60006020601f8301049050919050565b600082821b905092915050565b60006008830261202c7fffffffffffffffffffffffffffffffffffffffffffffffffffffffffffffffff82611fef565b6120368683611fef565b95508019841693508086168417925050509392505050565b6000819050919050565b600061207361206e61206984611306565b61204e565b611306565b9050919050565b6000819050919050565b61208d83612058565b6120a16120998261207a565b848454611ffc565b825550505050565b600090565b6120b66120a9565b6120c1818484612084565b505050565b5b818110156120e5576120da6000826120ae565b6001810190506120c7565b5050565b601f82111561212a576120fb81611fca565b61210484611fdf565b81016020851015612113578190505b61212761211f85611fdf565b8301826120c6565b50505b505050565b600082821c905092915050565b600061214d6000198460080261212f565b1980831691505092915050565b6000612166838361213c565b9150826002028217905092915050565b61217f82611763565b67ffffffffffffffff811115612198576121976113e9565b5b6121a28254611f99565b6121ad8282856120e9565b600060209050601f8311600181146121e057600084156121ce578287015190505b6121d8858261215a565b865550612240565b601f1984166121ee86611fca565b60005b82811015612216578489015182556001820191506020850194506020810190506121f1565b86831015612233578489015161222f601f89168261213c565b8355505b6001600288020188555050505b505050505050565b7f4e487b7100000000000000000000000000000000000000000000000000000000600052603260045260246000fd5b600061228282611306565b91507fffffffffffffffffffffffffffffffffffffffffffffffffffffffffffffffff82036122b4576122b3611a5f565b5b600182019050919050565b7f4d697373696e672063617465676f727900000000000000000000000000000000600082015250565b60006122f5601083611bb8565b9150612300826122bf565b602082019050919050565b60006020820190508181036000830152612324816122e8565b9050919050565b7f4d697373696e67207375622d6469766973696f6e206e616d6500000000000000600082015250565b6000612361601983611bb8565b915061236c8261232b565b602082019050919050565b6000602082019050818103600083015261239081612354565b9050919050565b7f416d6f756e7420657863656564732063617465676f7279206275646765740000600082015250565b60006123cd601e83611bb8565b91506123d882612397565b602082019050919050565b600060208201905081810360008301526123fc816123c0565b9050919050565b7f496e73756666696369656e742063617465676f72792066756e64730000000000600082015250565b6000612439601b83611bb8565b915061244482612403565b602082019050919050565b600060208201905081810360008301526124688161242c565b9050919050565b600060808201905081810360008301526124898186611e72565b9050818103602083015261249c81611d4c565b90506124ab604083018561162a565b6124b8606083018461162a565b949350505050565b7f4461696c79206c696d6974206578636565646564000000000000000000000000600082015250565b60006124f6601483611bb8565b9150612501826124c0565b602082019050919050565b60006020820190508181036000830152612525816124e9565b905091905056fea2646970667358221220ba98d321144240dbdd8e0d0937e8d80c6494c0ff906985bdafc286339ad4557d64736f6c63430008120033","opcodes":"PUSH1 0x80 PUSH1 0x40 MSTORE CALLVALUE DUP1 ISZERO PUSH2 0x10 JUMPI PUSH1 0x0 DUP1 REVERT JUMPDEST POP PUSH2 0x2562 DUP1 PUSH2 0x20 PUSH1 0x0 CODECOPY PUSH1 0x0 RETURN INVALID PUSH1 0x80 PUSH1 0x40 MSTORE CALLVALUE DUP1 ISZERO PUSH2 0x10 JUMPI PUSH1 0x0 DUP1 REVERT JUMPDEST POP PUSH1 0x4 CALLDATASIZE LT PUSH2 0x93 JUMPI PUSH1 0x0 CALLDATALOAD PUSH1 0xE0 SHR DUP1 PUSH4 0x70F2E4A9 GT PUSH2 0x66 JUMPI DUP1 PUSH4 0x70F2E4A9 EQ PUSH2 0x120 JUMPI DUP1 PUSH4 0x7FA54D6E EQ PUSH2 0x13C JUMPI DUP1 PUSH4 0xA4A50D29 EQ PUSH2 0x170 JUMPI DUP1 PUSH4 0xB6BB6F09 EQ PUSH2 0x1A3 JUMPI DUP1 PUSH4 0xFDFAF8B9 EQ PUSH2 0x1BF JUMPI PUSH2 0x93 JUMP JUMPDEST DUP1 PUSH4 0x52BC245 EQ PUSH2 0x98 JUMPI DUP1 PUSH4 0x35186088 EQ PUSH2 0xB4 JUMPI DUP1 PUSH4 0x38B54DF8 EQ PUSH2 0xD0 JUMPI DUP1 PUSH4 0x608937A6 EQ PUSH2 0xEC JUMPI JUMPDEST PUSH1 0x0 DUP1 REVERT JUMPDEST PUSH2 0xB2 PUSH1 0x4 DUP1 CALLDATASIZE SUB DUP2 ADD SWAP1 PUSH2 0xAD SWAP2 SWAP1 PUSH2 0x133C JUMP JUMPDEST PUSH2 0x1DB JUMP JUMPDEST STOP JUMPDEST PUSH2 0xCE PUSH1 0x4 DUP1 CALLDATASIZE SUB DUP2 ADD SWAP1 PUSH2 0xC9 SWAP2 SWAP1 PUSH2 0x13A1 JUMP JUMPDEST PUSH2 0x590 JUMP JUMPDEST STOP JUMPDEST PUSH2 0xEA PUSH1 0x4 DUP1 CALLDATASIZE SUB DUP2 ADD SWAP1 PUSH2 0xE5 SWAP2 SWAP1 PUSH2 0x1514 JUMP JUMPDEST PUSH2 0x5EC JUMP JUMPDEST STOP JUMPDEST PUSH2 0x106 PUSH1 0x4 DUP1 CALLDATASIZE SUB DUP2 ADD SWAP1 PUSH2 0x101 SWAP2 SWAP1 PUSH2 0x15FD JUMP JUMPDEST PUSH2 0x768 JUMP JUMPDEST PUSH1 0x40 MLOAD PUSH2 0x117 SWAP6 SWAP5 SWAP4 SWAP3 SWAP2 SWAP1 PUSH2 0x1639 JUMP JUMPDEST PUSH1 0x40 MLOAD DUP1 SWAP2 SUB SWAP1 RETURN JUMPDEST PUSH2 0x13A PUSH1 0x4 DUP1 CALLDATASIZE SUB DUP2 ADD SWAP1 PUSH2 0x135 SWAP2 SWAP1 PUSH2 0x133C JUMP JUMPDEST PUSH2 0x835 JUMP JUMPDEST STOP JUMPDEST PUSH2 0x156 PUSH1 0x4 DUP1 CALLDATASIZE SUB DUP2 ADD SWAP1 PUSH2 0x151 SWAP2 SWAP1 PUSH2 0x15FD JUMP JUMPDEST PUSH2 0xAFE JUMP JUMPDEST PUSH1 0x40 MLOAD PUSH2 0x167 SWAP6 SWAP5 SWAP4 SWAP3 SWAP2 SWAP1 PUSH2 0x169B JUMP JUMPDEST PUSH1 0x40 MLOAD DUP1 SWAP2 SUB SWAP1 RETURN JUMPDEST PUSH2 0x18A PUSH1 0x4 DUP1 CALLDATASIZE SUB DUP2 ADD SWAP1 PUSH2 0x185 SWAP2 SWAP1 PUSH2 0x16EE JUMP JUMPDEST PUSH2 0xB41 JUMP JUMPDEST PUSH1 0x40 MLOAD PUSH2 0x19A SWAP5 SWAP4 SWAP3 SWAP2 SWAP1 PUSH2 0x1936 JUMP JUMPDEST PUSH1 0x40 MLOAD DUP1 SWAP2 SUB SWAP1 RETURN JUMPDEST PUSH2 0x1BD PUSH1 0x4 DUP1 CALLDATASIZE SUB DUP2 ADD SWAP1 PUSH2 0x1B8 SWAP2 SWAP1 PUSH2 0x1514 JUMP JUMPDEST PUSH2 0xEF7 JUMP JUMPDEST STOP JUMPDEST PUSH2 0x1D9 PUSH1 0x4 DUP1 CALLDATASIZE SUB DUP2 ADD SWAP1 PUSH2 0x1D4 SWAP2 SWAP1 PUSH2 0x1997 JUMP JUMPDEST PUSH2 0x10FE JUMP JUMPDEST STOP JUMPDEST PUSH1 0x0 DUP1 PUSH1 0x0 CALLER PUSH20 0xFFFFFFFFFFFFFFFFFFFFFFFFFFFFFFFFFFFFFFFF AND PUSH20 0xFFFFFFFFFFFFFFFFFFFFFFFFFFFFFFFFFFFFFFFF AND DUP2 MSTORE PUSH1 0x20 ADD SWAP1 DUP2 MSTORE PUSH1 0x20 ADD PUSH1 0x0 KECCAK256 SWAP1 POP PUSH1 0x0 DUP2 PUSH1 0x4 ADD PUSH1 0x40 MLOAD PUSH2 0x22F SWAP1 PUSH2 0x1A4A JUMP JUMPDEST SWAP1 DUP2 MSTORE PUSH1 0x20 ADD PUSH1 0x40 MLOAD DUP1 SWAP2 SUB SWAP1 KECCAK256 PUSH1 0x1 ADD SLOAD DUP3 PUSH1 0x4 ADD PUSH1 0x40 MLOAD PUSH2 0x251 SWAP1 PUSH2 0x1A4A JUMP JUMPDEST SWAP1 DUP2 MSTORE PUSH1 0x20 ADD PUSH1 0x40 MLOAD DUP1 SWAP2 SUB SWAP1 KECCAK256 PUSH1 0x0 ADD SLOAD PUSH2 0x26D SWAP2 SWAP1 PUSH2 0x1A8E JUMP JUMPDEST SWAP1 POP PUSH1 0x0 DUP3 PUSH1 0x4 ADD PUSH1 0x40 MLOAD PUSH2 0x281 SWAP1 PUSH2 0x1B0E JUMP JUMPDEST SWAP1 DUP2 MSTORE PUSH1 0x20 ADD PUSH1 0x40 MLOAD DUP1 SWAP2 SUB SWAP1 KECCAK256 PUSH1 0x1 ADD SLOAD DUP4 PUSH1 0x4 ADD PUSH1 0x40 MLOAD PUSH2 0x2A3 SWAP1 PUSH2 0x1B0E JUMP JUMPDEST SWAP1 DUP2 MSTORE PUSH1 0x20 ADD PUSH1 0x40 MLOAD DUP1 SWAP2 SUB SWAP1 KECCAK256 PUSH1 0x0 ADD SLOAD PUSH2 0x2BF SWAP2 SWAP1 PUSH2 0x1A8E JUMP JUMPDEST SWAP1 POP PUSH1 0x0 DUP4 PUSH1 0x4 ADD PUSH1 0x40 MLOAD PUSH2 0x2D3 SWAP1 PUSH2 0x1B6F JUMP JUMPDEST SWAP1 DUP2 MSTORE PUSH1 0x20 ADD PUSH1 0x40 MLOAD DUP1 SWAP2 SUB SWAP1 KECCAK256 PUSH1 0x1 ADD SLOAD DUP5 PUSH1 0x4 ADD PUSH1 0x40 MLOAD PUSH2 0x2F5 SWAP1 PUSH2 0x1B6F JUMP JUMPDEST SWAP1 DUP2 MSTORE PUSH1 0x20 ADD PUSH1 0x40 MLOAD DUP1 SWAP2 SUB SWAP1 KECCAK256 PUSH1 0x0 ADD SLOAD PUSH2 0x311 SWAP2 SWAP1 PUSH2 0x1A8E JUMP JUMPDEST SWAP1 POP PUSH1 0x0 DUP2 DUP4 DUP6 PUSH2 0x322 SWAP2 SWAP1 PUSH2 0x1B84 JUMP JUMPDEST PUSH2 0x32C SWAP2 SWAP1 PUSH2 0x1B84 JUMP JUMPDEST SWAP1 POP DUP6 DUP2 LT ISZERO PUSH2 0x371 JUMPI PUSH1 0x40 MLOAD PUSH32 0x8C379A000000000000000000000000000000000000000000000000000000000 DUP2 MSTORE PUSH1 0x4 ADD PUSH2 0x368 SWAP1 PUSH2 0x1C3B JUMP JUMPDEST PUSH1 0x40 MLOAD DUP1 SWAP2 SUB SWAP1 REVERT JUMPDEST PUSH2 0x37B DUP6 DUP8 PUSH2 0x1237 JUMP JUMPDEST PUSH1 0x0 DUP6 PUSH1 0x4 ADD PUSH1 0x40 MLOAD PUSH2 0x38D SWAP1 PUSH2 0x1B6F JUMP JUMPDEST SWAP1 DUP2 MSTORE PUSH1 0x20 ADD PUSH1 0x40 MLOAD DUP1 SWAP2 SUB SWAP1 KECCAK256 PUSH1 0x0 ADD SLOAD DUP7 PUSH1 0x4 ADD PUSH1 0x40 MLOAD PUSH2 0x3AF SWAP1 PUSH2 0x1B0E JUMP JUMPDEST SWAP1 DUP2 MSTORE PUSH1 0x20 ADD PUSH1 0x40 MLOAD DUP1 SWAP2 SUB SWAP1 KECCAK256 PUSH1 0x0 ADD SLOAD DUP8 PUSH1 0x4 ADD PUSH1 0x40 MLOAD PUSH2 0x3D1 SWAP1 PUSH2 0x1A4A JUMP JUMPDEST SWAP1 DUP2 MSTORE PUSH1 0x20 ADD PUSH1 0x40 MLOAD DUP1 SWAP2 SUB SWAP1 KECCAK256 PUSH1 0x0 ADD SLOAD PUSH2 0x3ED SWAP2 SWAP1 PUSH2 0x1B84 JUMP JUMPDEST PUSH2 0x3F7 SWAP2 SWAP1 PUSH2 0x1B84 JUMP JUMPDEST SWAP1 POP PUSH1 0x0 DUP2 DUP9 DUP9 PUSH1 0x4 ADD PUSH1 0x40 MLOAD PUSH2 0x40D SWAP1 PUSH2 0x1A4A JUMP JUMPDEST SWAP1 DUP2 MSTORE PUSH1 0x20 ADD PUSH1 0x40 MLOAD DUP1 SWAP2 SUB SWAP1 KECCAK256 PUSH1 0x0 ADD SLOAD PUSH2 0x429 SWAP2 SWAP1 PUSH2 0x1C5B JUMP JUMPDEST PUSH2 0x433 SWAP2 SWAP1 PUSH2 0x1CCC JUMP JUMPDEST SWAP1 POP PUSH1 0x0 DUP3 DUP10 DUP10 PUSH1 0x4 ADD PUSH1 0x40 MLOAD PUSH2 0x449 SWAP1 PUSH2 0x1B0E JUMP JUMPDEST SWAP1 DUP2 MSTORE PUSH1 0x20 ADD PUSH1 0x40 MLOAD DUP1 SWAP2 SUB SWAP1 KECCAK256 PUSH1 0x0 ADD SLOAD PUSH2 0x465 SWAP2 SWAP1 PUSH2 0x1C5B JUMP JUMPDEST PUSH2 0x46F SWAP2 SWAP1 PUSH2 0x1CCC JUMP JUMPDEST SWAP1 POP PUSH1 0x0 DUP2 DUP4 PUSH2 0x47F SWAP2 SWAP1 PUSH2 0x1B84 JUMP JUMPDEST DUP11 PUSH2 0x48A SWAP2 SWAP1 PUSH2 0x1A8E JUMP JUMPDEST SWAP1 POP DUP3 DUP10 PUSH1 0x4 ADD PUSH1 0x40 MLOAD PUSH2 0x49D SWAP1 PUSH2 0x1A4A JUMP JUMPDEST SWAP1 DUP2 MSTORE PUSH1 0x20 ADD PUSH1 0x40 MLOAD DUP1 SWAP2 SUB SWAP1 KECCAK256 PUSH1 0x1 ADD PUSH1 0x0 DUP3 DUP3 SLOAD PUSH2 0x4BD SWAP2 SWAP1 PUSH2 0x1B84 JUMP JUMPDEST SWAP3 POP POP DUP2 SWAP1 SSTORE POP DUP2 DUP10 PUSH1 0x4 ADD PUSH1 0x40 MLOAD PUSH2 0x4D5 SWAP1 PUSH2 0x1B0E JUMP JUMPDEST SWAP1 DUP2 MSTORE PUSH1 0x20 ADD PUSH1 0x40 MLOAD DUP1 SWAP2 SUB SWAP1 KECCAK256 PUSH1 0x1 ADD PUSH1 0x0 DUP3 DUP3 SLOAD PUSH2 0x4F5 SWAP2 SWAP1 PUSH2 0x1B84 JUMP JUMPDEST SWAP3 POP POP DUP2 SWAP1 SSTORE POP DUP1 DUP10 PUSH1 0x4 ADD PUSH1 0x40 MLOAD PUSH2 0x50D SWAP1 PUSH2 0x1B6F JUMP JUMPDEST SWAP1 DUP2 MSTORE PUSH1 0x20 ADD PUSH1 0x40 MLOAD DUP1 SWAP2 SUB SWAP1 KECCAK256 PUSH1 0x1 ADD PUSH1 0x0 DUP3 DUP3 SLOAD PUSH2 0x52D SWAP2 SWAP1 PUSH2 0x1B84 JUMP JUMPDEST SWAP3 POP POP DUP2 SWAP1 SSTORE POP CALLER PUSH20 0xFFFFFFFFFFFFFFFFFFFFFFFFFFFFFFFFFFFFFFFF AND PUSH32 0x13657DEA4779547E9C75D813B2CC70322CD3808CD575DD2381C52BB5E932643E DUP12 TIMESTAMP PUSH1 0x40 MLOAD PUSH2 0x57C SWAP3 SWAP2 SWAP1 PUSH2 0x1D6F JUMP JUMPDEST PUSH1 0x40 MLOAD DUP1 SWAP2 SUB SWAP1 LOG2 POP POP POP POP POP POP POP POP POP POP JUMP JUMPDEST DUP1 PUSH1 0x0 DUP1 CALLER PUSH20 0xFFFFFFFFFFFFFFFFFFFFFFFFFFFFFFFFFFFFFFFF AND PUSH20 0xFFFFFFFFFFFFFFFFFFFFFFFFFFFFFFFFFFFFFFFF AND DUP2 MSTORE PUSH1 0x20 ADD SWAP1 DUP2 MSTORE PUSH1 0x20 ADD PUSH1 0x0 KECCAK256 PUSH1 0x6 ADD PUSH1 0x0 PUSH2 0x100 EXP DUP2 SLOAD DUP2 PUSH1 0xFF MUL NOT AND SWAP1 DUP4 ISZERO ISZERO MUL OR SWAP1 SSTORE POP POP JUMP JUMPDEST PUSH1 0x0 DUP1 PUSH1 0x0 CALLER PUSH20 0xFFFFFFFFFFFFFFFFFFFFFFFFFFFFFFFFFFFFFFFF AND PUSH20 0xFFFFFFFFFFFFFFFFFFFFFFFFFFFFFFFFFFFFFFFF AND DUP2 MSTORE PUSH1 0x20 ADD SWAP1 DUP2 MSTORE PUSH1 0x20 ADD PUSH1 0x0 KECCAK256 SWAP1 POP PUSH1 0x0 DUP2 PUSH1 0x4 ADD DUP6 PUSH1 0x40 MLOAD PUSH2 0x642 SWAP2 SWAP1 PUSH2 0x1DEF JUMP JUMPDEST SWAP1 DUP2 MSTORE PUSH1 0x20 ADD PUSH1 0x40 MLOAD DUP1 SWAP2 SUB SWAP1 KECCAK256 SWAP1 POP PUSH1 0x0 DUP2 PUSH1 0x2 ADD DUP6 PUSH1 0x40 MLOAD PUSH2 0x666 SWAP2 SWAP1 PUSH2 0x1DEF JUMP JUMPDEST SWAP1 DUP2 MSTORE PUSH1 0x20 ADD PUSH1 0x40 MLOAD DUP1 SWAP2 SUB SWAP1 KECCAK256 SWAP1 POP DUP4 DUP2 PUSH1 0x2 ADD SLOAD DUP3 PUSH1 0x1 ADD SLOAD PUSH2 0x68B SWAP2 SWAP1 PUSH2 0x1A8E JUMP JUMPDEST LT ISZERO PUSH2 0x6CC JUMPI PUSH1 0x40 MLOAD PUSH32 0x8C379A000000000000000000000000000000000000000000000000000000000 DUP2 MSTORE PUSH1 0x4 ADD PUSH2 0x6C3 SWAP1 PUSH2 0x1E52 JUMP JUMPDEST PUSH1 0x40 MLOAD DUP1 SWAP2 SUB SWAP1 REVERT JUMPDEST PUSH2 0x6D6 DUP4 DUP6 PUSH2 0x1237 JUMP JUMPDEST DUP4 DUP2 PUSH1 0x2 ADD PUSH1 0x0 DUP3 DUP3 SLOAD PUSH2 0x6EA SWAP2 SWAP1 PUSH2 0x1B84 JUMP JUMPDEST SWAP3 POP POP DUP2 SWAP1 SSTORE POP DUP4 DUP3 PUSH1 0x1 ADD PUSH1 0x0 DUP3 DUP3 SLOAD PUSH2 0x705 SWAP2 SWAP1 PUSH2 0x1B84 JUMP JUMPDEST SWAP3 POP POP DUP2 SWAP1 SSTORE POP CALLER PUSH20 0xFFFFFFFFFFFFFFFFFFFFFFFFFFFFFFFFFFFFFFFF AND PUSH32 0x13657DEA4779547E9C75D813B2CC70322CD3808CD575DD2381C52BB5E932643E DUP8 DUP8 DUP8 TIMESTAMP PUSH1 0x40 MLOAD PUSH2 0x758 SWAP5 SWAP4 SWAP3 SWAP2 SWAP1 PUSH2 0x1EAB JUMP JUMPDEST PUSH1 0x40 MLOAD DUP1 SWAP2 SUB SWAP1 LOG2 POP POP POP POP POP POP JUMP JUMPDEST PUSH1 0x0 DUP1 PUSH1 0x0 DUP1 PUSH1 0x0 DUP1 PUSH1 0x0 DUP1 DUP9 PUSH20 0xFFFFFFFFFFFFFFFFFFFFFFFFFFFFFFFFFFFFFFFF AND PUSH20 0xFFFFFFFFFFFFFFFFFFFFFFFFFFFFFFFFFFFFFFFF AND DUP2 MSTORE PUSH1 0x20 ADD SWAP1 DUP2 MSTORE PUSH1 0x20 ADD PUSH1 0x0 KECCAK256 SWAP1 POP DUP1 PUSH1 0x0 ADD SLOAD DUP2 PUSH1 0x1 ADD SLOAD DUP3 PUSH1 0x4 ADD PUSH1 0x40 MLOAD PUSH2 0x7CB SWAP1 PUSH2 0x1A4A JUMP JUMPDEST SWAP1 DUP2 MSTORE PUSH1 0x20 ADD PUSH1 0x40 MLOAD DUP1 SWAP2 SUB SWAP1 KECCAK256 PUSH1 0x0 ADD SLOAD DUP4 PUSH1 0x4 ADD PUSH1 0x40 MLOAD PUSH2 0x7ED SWAP1 PUSH2 0x1B0E JUMP JUMPDEST SWAP1 DUP2 MSTORE PUSH1 0x20 ADD PUSH1 0x40 MLOAD DUP1 SWAP2 SUB SWAP1 KECCAK256 PUSH1 0x0 ADD SLOAD DUP5 PUSH1 0x4 ADD PUSH1 0x40 MLOAD PUSH2 0x80F SWAP1 PUSH2 0x1B6F JUMP JUMPDEST SWAP1 DUP2 MSTORE PUSH1 0x20 ADD PUSH1 0x40 MLOAD DUP1 SWAP2 SUB SWAP1 KECCAK256 PUSH1 0x0 ADD SLOAD SWAP6 POP SWAP6 POP SWAP6 POP SWAP6 POP SWAP6 POP POP SWAP2 SWAP4 SWAP6 SWAP1 SWAP3 SWAP5 POP JUMP JUMPDEST PUSH1 0x0 DUP2 GT PUSH2 0x878 JUMPI PUSH1 0x40 MLOAD PUSH32 0x8C379A000000000000000000000000000000000000000000000000000000000 DUP2 MSTORE PUSH1 0x4 ADD PUSH2 0x86F SWAP1 PUSH2 0x1F4A JUMP JUMPDEST PUSH1 0x40 MLOAD DUP1 SWAP2 SUB SWAP1 REVERT JUMPDEST PUSH1 0x0 DUP1 PUSH1 0x0 CALLER PUSH20 0xFFFFFFFFFFFFFFFFFFFFFFFFFFFFFFFFFFFFFFFF AND PUSH20 0xFFFFFFFFFFFFFFFFFFFFFFFFFFFFFFFFFFFFFFFF AND DUP2 MSTORE PUSH1 0x20 ADD SWAP1 DUP2 MSTORE PUSH1 0x20 ADD PUSH1 0x0 KECCAK256 SWAP1 POP DUP2 DUP2 PUSH1 0x0 ADD DUP2 SWAP1 SSTORE POP PUSH1 0x1E DUP3 PUSH2 0x8D0 SWAP2 SWAP1 PUSH2 0x1CCC JUMP JUMPDEST DUP2 PUSH1 0x1 ADD DUP2 SWAP1 SSTORE POP PUSH1 0x1 DUP2 PUSH1 0x6 ADD PUSH1 0x0 PUSH2 0x100 EXP DUP2 SLOAD DUP2 PUSH1 0xFF MUL NOT AND SWAP1 DUP4 ISZERO ISZERO MUL OR SWAP1 SSTORE POP PUSH1 0x0 PUSH1 0x64 PUSH1 0x32 DUP5 PUSH2 0x906 SWAP2 SWAP1 PUSH2 0x1C5B JUMP JUMPDEST PUSH2 0x910 SWAP2 SWAP1 PUSH2 0x1CCC JUMP JUMPDEST SWAP1 POP PUSH1 0x0 PUSH1 0x64 PUSH1 0x1E DUP6 PUSH2 0x923 SWAP2 SWAP1 PUSH2 0x1C5B JUMP JUMPDEST PUSH2 0x92D SWAP2 SWAP1 PUSH2 0x1CCC JUMP JUMPDEST SWAP1 POP PUSH1 0x0 DUP2 DUP4 PUSH2 0x93D SWAP2 SWAP1 PUSH2 0x1B84 JUMP JUMPDEST DUP6 PUSH2 0x948 SWAP2 SWAP1 PUSH2 0x1A8E JUMP JUMPDEST SWAP1 POP DUP3 DUP5 PUSH1 0x4 ADD PUSH1 0x40 MLOAD PUSH2 0x95B SWAP1 PUSH2 0x1A4A JUMP JUMPDEST SWAP1 DUP2 MSTORE PUSH1 0x20 ADD PUSH1 0x40 MLOAD DUP1 SWAP2 SUB SWAP1 KECCAK256 PUSH1 0x0 ADD DUP2 SWAP1 SSTORE POP DUP2 DUP5 PUSH1 0x4 ADD PUSH1 0x40 MLOAD PUSH2 0x981 SWAP1 PUSH2 0x1B0E JUMP JUMPDEST SWAP1 DUP2 MSTORE PUSH1 0x20 ADD PUSH1 0x40 MLOAD DUP1 SWAP2 SUB SWAP1 KECCAK256 PUSH1 0x0 ADD DUP2 SWAP1 SSTORE POP DUP1 DUP5 PUSH1 0x4 ADD PUSH1 0x40 MLOAD PUSH2 0x9A7 SWAP1 PUSH2 0x1B6F JUMP JUMPDEST SWAP1 DUP2 MSTORE PUSH1 0x20 ADD PUSH1 0x40 MLOAD DUP1 SWAP2 SUB SWAP1 KECCAK256 PUSH1 0x0 ADD DUP2 SWAP1 SSTORE POP DUP4 PUSH1 0x5 ADD DUP1 PUSH1 0x1 DUP2 SLOAD ADD DUP1 DUP3 SSTORE DUP1 SWAP2 POP POP PUSH1 0x1 SWAP1 SUB SWAP1 PUSH1 0x0 MSTORE PUSH1 0x20 PUSH1 0x0 KECCAK256 ADD PUSH1 0x0 PUSH1 0x40 MLOAD DUP1 PUSH1 0x40 ADD PUSH1 0x40 MSTORE DUP1 PUSH1 0x5 DUP2 MSTORE PUSH1 0x20 ADD PUSH32 0x4E65656473000000000000000000000000000000000000000000000000000000 DUP2 MSTORE POP SWAP1 SWAP2 SWAP1 SWAP2 POP SWAP1 DUP2 PUSH2 0xA24 SWAP2 SWAP1 PUSH2 0x2176 JUMP JUMPDEST POP DUP4 PUSH1 0x5 ADD DUP1 PUSH1 0x1 DUP2 SLOAD ADD DUP1 DUP3 SSTORE DUP1 SWAP2 POP POP PUSH1 0x1 SWAP1 SUB SWAP1 PUSH1 0x0 MSTORE PUSH1 0x20 PUSH1 0x0 KECCAK256 ADD PUSH1 0x0 PUSH1 0x40 MLOAD DUP1 PUSH1 0x40 ADD PUSH1 0x40 MSTORE DUP1 PUSH1 0x5 DUP2 MSTORE PUSH1 0x20 ADD PUSH32 0x57616E7473000000000000000000000000000000000000000000000000000000 DUP2 MSTORE POP SWAP1 SWAP2 SWAP1 SWAP2 POP SWAP1 DUP2 PUSH2 0xA8D SWAP2 SWAP1 PUSH2 0x2176 JUMP JUMPDEST POP DUP4 PUSH1 0x5 ADD DUP1 PUSH1 0x1 DUP2 SLOAD ADD DUP1 DUP3 SSTORE DUP1 SWAP2 POP POP PUSH1 0x1 SWAP1 SUB SWAP1 PUSH1 0x0 MSTORE PUSH1 0x20 PUSH1 0x0 KECCAK256 ADD PUSH1 0x0 PUSH1 0x40 MLOAD DUP1 PUSH1 0x40 ADD PUSH1 0x40 MSTORE DUP1 PUSH1 0x7 DUP2 MSTORE PUSH1 0x20 ADD PUSH32 0x536176696E677300000000000000000000000000000000000000000000000000 DUP2 MSTORE POP SWAP1 SWAP2 SWAP1 SWAP2 POP SWAP1 DUP2 PUSH2 0xAF6 SWAP2 SWAP1 PUSH2 0x2176 JUMP JUMPDEST POP POP POP POP POP POP JUMP JUMPDEST PUSH1 0x0 PUSH1 0x20 MSTORE DUP1 PUSH1 0x0 MSTORE PUSH1 0x40 PUSH1 0x0 KECCAK256 PUSH1 0x0 SWAP2 POP SWAP1 POP DUP1 PUSH1 0x0 ADD SLOAD SWAP1 DUP1 PUSH1 0x1 ADD SLOAD SWAP1 DUP1 PUSH1 0x2 ADD SLOAD SWAP1 DUP1 PUSH1 0x3 ADD SLOAD SWAP1 DUP1 PUSH1 0x6 ADD PUSH1 0x0 SWAP1 SLOAD SWAP1 PUSH2 0x100 EXP SWAP1 DIV PUSH1 0xFF AND SWAP1 POP DUP6 JUMP JUMPDEST PUSH1 0x60 DUP1 PUSH1 0x60 DUP1 PUSH1 0x0 DUP1 PUSH1 0x0 CALLER PUSH20 0xFFFFFFFFFFFFFFFFFFFFFFFFFFFFFFFFFFFFFFFF AND PUSH20 0xFFFFFFFFFFFFFFFFFFFFFFFFFFFFFFFFFFFFFFFF AND DUP2 MSTORE PUSH1 0x20 ADD SWAP1 DUP2 MSTORE PUSH1 0x20 ADD PUSH1 0x0 KECCAK256 PUSH1 0x4 ADD DUP7 PUSH1 0x40 MLOAD PUSH2 0xB98 SWAP2 SWAP1 PUSH2 0x1DEF JUMP JUMPDEST SWAP1 DUP2 MSTORE PUSH1 0x20 ADD PUSH1 0x40 MLOAD DUP1 SWAP2 SUB SWAP1 KECCAK256 SWAP1 POP PUSH1 0x0 DUP2 PUSH1 0x3 ADD DUP1 SLOAD SWAP1 POP SWAP1 POP DUP1 PUSH8 0xFFFFFFFFFFFFFFFF DUP2 GT ISZERO PUSH2 0xBCE JUMPI PUSH2 0xBCD PUSH2 0x13E9 JUMP JUMPDEST JUMPDEST PUSH1 0x40 MLOAD SWAP1 DUP1 DUP3 MSTORE DUP1 PUSH1 0x20 MUL PUSH1 0x20 ADD DUP3 ADD PUSH1 0x40 MSTORE DUP1 ISZERO PUSH2 0xC01 JUMPI DUP2 PUSH1 0x20 ADD JUMPDEST PUSH1 0x60 DUP2 MSTORE PUSH1 0x20 ADD SWAP1 PUSH1 0x1 SWAP1 SUB SWAP1 DUP2 PUSH2 0xBEC JUMPI SWAP1 POP JUMPDEST POP SWAP6 POP DUP1 PUSH8 0xFFFFFFFFFFFFFFFF DUP2 GT ISZERO PUSH2 0xC1E JUMPI PUSH2 0xC1D PUSH2 0x13E9 JUMP JUMPDEST JUMPDEST PUSH1 0x40 MLOAD SWAP1 DUP1 DUP3 MSTORE DUP1 PUSH1 0x20 MUL PUSH1 0x20 ADD DUP3 ADD PUSH1 0x40 MSTORE DUP1 ISZERO PUSH2 0xC4C JUMPI DUP2 PUSH1 0x20 ADD PUSH1 0x20 DUP3 MUL DUP1 CALLDATASIZE DUP4 CALLDATACOPY DUP1 DUP3 ADD SWAP2 POP POP SWAP1 POP JUMPDEST POP SWAP5 POP DUP1 PUSH8 0xFFFFFFFFFFFFFFFF DUP2 GT ISZERO PUSH2 0xC69 JUMPI PUSH2 0xC68 PUSH2 0x13E9 JUMP JUMPDEST JUMPDEST PUSH1 0x40 MLOAD SWAP1 DUP1 DUP3 MSTORE DUP1 PUSH1 0x20 MUL PUSH1 0x20 ADD DUP3 ADD PUSH1 0x40 MSTORE DUP1 ISZERO PUSH2 0xC97 JUMPI DUP2 PUSH1 0x20 ADD PUSH1 0x20 DUP3 MUL DUP1 CALLDATASIZE DUP4 CALLDATACOPY DUP1 DUP3 ADD SWAP2 POP POP SWAP1 POP JUMPDEST POP SWAP4 POP DUP1 PUSH8 0xFFFFFFFFFFFFFFFF DUP2 GT ISZERO PUSH2 0xCB4 JUMPI PUSH2 0xCB3 PUSH2 0x13E9 JUMP JUMPDEST JUMPDEST PUSH1 0x40 MLOAD SWAP1 DUP1 DUP3 MSTORE DUP1 PUSH1 0x20 MUL PUSH1 0x20 ADD DUP3 ADD PUSH1 0x40 MSTORE DUP1 ISZERO PUSH2 0xCE2 JUMPI DUP2 PUSH1 0x20 ADD PUSH1 0x20 DUP3 MUL DUP1 CALLDATASIZE DUP4 CALLDATACOPY DUP1 DUP3 ADD SWAP2 POP POP SWAP1 POP JUMPDEST POP SWAP3 POP PUSH1 0x0 JUMPDEST DUP2 DUP2 LT ISZERO PUSH2 0xEED JUMPI PUSH1 0x0 DUP4 PUSH1 0x3 ADD DUP3 DUP2 SLOAD DUP2 LT PUSH2 0xD08 JUMPI PUSH2 0xD07 PUSH2 0x2248 JUMP JUMPDEST JUMPDEST SWAP1 PUSH1 0x0 MSTORE PUSH1 0x20 PUSH1 0x0 KECCAK256 ADD DUP1 SLOAD PUSH2 0xD1D SWAP1 PUSH2 0x1F99 JUMP JUMPDEST DUP1 PUSH1 0x1F ADD PUSH1 0x20 DUP1 SWAP2 DIV MUL PUSH1 0x20 ADD PUSH1 0x40 MLOAD SWAP1 DUP2 ADD PUSH1 0x40 MSTORE DUP1 SWAP3 SWAP2 SWAP1 DUP2 DUP2 MSTORE PUSH1 0x20 ADD DUP3 DUP1 SLOAD PUSH2 0xD49 SWAP1 PUSH2 0x1F99 JUMP JUMPDEST DUP1 ISZERO PUSH2 0xD96 JUMPI DUP1 PUSH1 0x1F LT PUSH2 0xD6B JUMPI PUSH2 0x100 DUP1 DUP4 SLOAD DIV MUL DUP4 MSTORE SWAP2 PUSH1 0x20 ADD SWAP2 PUSH2 0xD96 JUMP JUMPDEST DUP3 ADD SWAP2 SWAP1 PUSH1 0x0 MSTORE PUSH1 0x20 PUSH1 0x0 KECCAK256 SWAP1 JUMPDEST DUP2 SLOAD DUP2 MSTORE SWAP1 PUSH1 0x1 ADD SWAP1 PUSH1 0x20 ADD DUP1 DUP4 GT PUSH2 0xD79 JUMPI DUP3 SWAP1 SUB PUSH1 0x1F AND DUP3 ADD SWAP2 JUMPDEST POP POP POP POP POP SWAP1 POP PUSH1 0x0 DUP5 PUSH1 0x2 ADD DUP3 PUSH1 0x40 MLOAD PUSH2 0xDB1 SWAP2 SWAP1 PUSH2 0x1DEF JUMP JUMPDEST SWAP1 DUP2 MSTORE PUSH1 0x20 ADD PUSH1 0x40 MLOAD DUP1 SWAP2 SUB SWAP1 KECCAK256 SWAP1 POP DUP1 PUSH1 0x0 ADD DUP1 SLOAD PUSH2 0xDD0 SWAP1 PUSH2 0x1F99 JUMP JUMPDEST DUP1 PUSH1 0x1F ADD PUSH1 0x20 DUP1 SWAP2 DIV MUL PUSH1 0x20 ADD PUSH1 0x40 MLOAD SWAP1 DUP2 ADD PUSH1 0x40 MSTORE DUP1 SWAP3 SWAP2 SWAP1 DUP2 DUP2 MSTORE PUSH1 0x20 ADD DUP3 DUP1 SLOAD PUSH2 0xDFC SWAP1 PUSH2 0x1F99 JUMP JUMPDEST DUP1 ISZERO PUSH2 0xE49 JUMPI DUP1 PUSH1 0x1F LT PUSH2 0xE1E JUMPI PUSH2 0x100 DUP1 DUP4 SLOAD DIV MUL DUP4 MSTORE SWAP2 PUSH1 0x20 ADD SWAP2 PUSH2 0xE49 JUMP JUMPDEST DUP3 ADD SWAP2 SWAP1 PUSH1 0x0 MSTORE PUSH1 0x20 PUSH1 0x0 KECCAK256 SWAP1 JUMPDEST DUP2 SLOAD DUP2 MSTORE SWAP1 PUSH1 0x1 ADD SWAP1 PUSH1 0x20 ADD DUP1 DUP4 GT PUSH2 0xE2C JUMPI DUP3 SWAP1 SUB PUSH1 0x1F AND DUP3 ADD SWAP2 JUMPDEST POP POP POP POP POP DUP10 DUP5 DUP2 MLOAD DUP2 LT PUSH2 0xE61 JUMPI PUSH2 0xE60 PUSH2 0x2248 JUMP JUMPDEST JUMPDEST PUSH1 0x20 MUL PUSH1 0x20 ADD ADD DUP2 SWAP1 MSTORE POP DUP1 PUSH1 0x1 ADD SLOAD DUP9 DUP5 DUP2 MLOAD DUP2 LT PUSH2 0xE84 JUMPI PUSH2 0xE83 PUSH2 0x2248 JUMP JUMPDEST JUMPDEST PUSH1 0x20 MUL PUSH1 0x20 ADD ADD DUP2 DUP2 MSTORE POP POP DUP1 PUSH1 0x3 ADD SLOAD DUP8 DUP5 DUP2 MLOAD DUP2 LT PUSH2 0xEA8 JUMPI PUSH2 0xEA7 PUSH2 0x2248 JUMP JUMPDEST JUMPDEST PUSH1 0x20 MUL PUSH1 0x20 ADD ADD DUP2 DUP2 MSTORE POP POP DUP1 PUSH1 0x2 ADD SLOAD DUP7 DUP5 DUP2 MLOAD DUP2 LT PUSH2 0xECC JUMPI PUSH2 0xECB PUSH2 0x2248 JUMP JUMPDEST JUMPDEST PUSH1 0x20 MUL PUSH1 0x20 ADD ADD DUP2 DUP2 MSTORE POP POP POP POP DUP1 DUP1 PUSH2 0xEE5 SWAP1 PUSH2 0x2277 JUMP JUMPDEST SWAP2 POP POP PUSH2 0xCE8 JUMP JUMPDEST POP POP POP SWAP2 SWAP4 POP SWAP2 SWAP4 JUMP JUMPDEST PUSH1 0x0 DUP4 MLOAD GT PUSH2 0xF3B JUMPI PUSH1 0x40 MLOAD PUSH32 0x8C379A000000000000000000000000000000000000000000000000000000000 DUP2 MSTORE PUSH1 0x4 ADD PUSH2 0xF32 SWAP1 PUSH2 0x230B JUMP JUMPDEST PUSH1 0x40 MLOAD DUP1 SWAP2 SUB SWAP1 REVERT JUMPDEST PUSH1 0x0 DUP3 MLOAD GT PUSH2 0xF7F JUMPI PUSH1 0x40 MLOAD PUSH32 0x8C379A000000000000000000000000000000000000000000000000000000000 DUP2 MSTORE PUSH1 0x4 ADD PUSH2 0xF76 SWAP1 PUSH2 0x2377 JUMP JUMPDEST PUSH1 0x40 MLOAD DUP1 SWAP2 SUB SWAP1 REVERT JUMPDEST PUSH1 0x0 DUP1 PUSH1 0x0 CALLER PUSH20 0xFFFFFFFFFFFFFFFFFFFFFFFFFFFFFFFFFFFFFFFF AND PUSH20 0xFFFFFFFFFFFFFFFFFFFFFFFFFFFFFFFFFFFFFFFF AND DUP2 MSTORE PUSH1 0x20 ADD SWAP1 DUP2 MSTORE PUSH1 0x20 ADD PUSH1 0x0 KECCAK256 PUSH1 0x4 ADD DUP5 PUSH1 0x40 MLOAD PUSH2 0xFD0 SWAP2 SWAP1 PUSH2 0x1DEF JUMP JUMPDEST SWAP1 DUP2 MSTORE PUSH1 0x20 ADD PUSH1 0x40 MLOAD DUP1 SWAP2 SUB SWAP1 KECCAK256 SWAP1 POP DUP2 DUP2 PUSH1 0x0 ADD SLOAD LT ISZERO PUSH2 0x1027 JUMPI PUSH1 0x40 MLOAD PUSH32 0x8C379A000000000000000000000000000000000000000000000000000000000 DUP2 MSTORE PUSH1 0x4 ADD PUSH2 0x101E SWAP1 PUSH2 0x23E3 JUMP JUMPDEST PUSH1 0x40 MLOAD DUP1 SWAP2 SUB SWAP1 REVERT JUMPDEST PUSH1 0x0 DUP2 PUSH1 0x0 ADD SLOAD PUSH1 0x64 DUP5 PUSH2 0x103B SWAP2 SWAP1 PUSH2 0x1C5B JUMP JUMPDEST PUSH2 0x1045 SWAP2 SWAP1 PUSH2 0x1CCC JUMP JUMPDEST SWAP1 POP PUSH1 0x40 MLOAD DUP1 PUSH1 0x80 ADD PUSH1 0x40 MSTORE DUP1 DUP6 DUP2 MSTORE PUSH1 0x20 ADD DUP5 DUP2 MSTORE PUSH1 0x20 ADD PUSH1 0x0 DUP2 MSTORE PUSH1 0x20 ADD DUP3 DUP2 MSTORE POP DUP3 PUSH1 0x2 ADD DUP6 PUSH1 0x40 MLOAD PUSH2 0x107B SWAP2 SWAP1 PUSH2 0x1DEF JUMP JUMPDEST SWAP1 DUP2 MSTORE PUSH1 0x20 ADD PUSH1 0x40 MLOAD DUP1 SWAP2 SUB SWAP1 KECCAK256 PUSH1 0x0 DUP3 ADD MLOAD DUP2 PUSH1 0x0 ADD SWAP1 DUP2 PUSH2 0x109E SWAP2 SWAP1 PUSH2 0x2176 JUMP JUMPDEST POP PUSH1 0x20 DUP3 ADD MLOAD DUP2 PUSH1 0x1 ADD SSTORE PUSH1 0x40 DUP3 ADD MLOAD DUP2 PUSH1 0x2 ADD SSTORE PUSH1 0x60 DUP3 ADD MLOAD DUP2 PUSH1 0x3 ADD SSTORE SWAP1 POP POP DUP2 PUSH1 0x3 ADD DUP5 SWAP1 DUP1 PUSH1 0x1 DUP2 SLOAD ADD DUP1 DUP3 SSTORE DUP1 SWAP2 POP POP PUSH1 0x1 SWAP1 SUB SWAP1 PUSH1 0x0 MSTORE PUSH1 0x20 PUSH1 0x0 KECCAK256 ADD PUSH1 0x0 SWAP1 SWAP2 SWAP1 SWAP2 SWAP1 SWAP2 POP SWAP1 DUP2 PUSH2 0x10F6 SWAP2 SWAP1 PUSH2 0x2176 JUMP JUMPDEST POP POP POP POP POP POP JUMP JUMPDEST PUSH1 0x0 DUP1 PUSH1 0x0 CALLER PUSH20 0xFFFFFFFFFFFFFFFFFFFFFFFFFFFFFFFFFFFFFFFF AND PUSH20 0xFFFFFFFFFFFFFFFFFFFFFFFFFFFFFFFFFFFFFFFF AND DUP2 MSTORE PUSH1 0x20 ADD SWAP1 DUP2 MSTORE PUSH1 0x20 ADD PUSH1 0x0 KECCAK256 SWAP1 POP PUSH1 0x0 DUP2 PUSH1 0x4 ADD DUP5 PUSH1 0x40 MLOAD PUSH2 0x1154 SWAP2 SWAP1 PUSH2 0x1DEF JUMP JUMPDEST SWAP1 DUP2 MSTORE PUSH1 0x20 ADD PUSH1 0x40 MLOAD DUP1 SWAP2 SUB SWAP1 KECCAK256 SWAP1 POP DUP3 DUP2 PUSH1 0x1 ADD SLOAD DUP3 PUSH1 0x0 ADD SLOAD PUSH2 0x1179 SWAP2 SWAP1 PUSH2 0x1A8E JUMP JUMPDEST LT ISZERO PUSH2 0x11BA JUMPI PUSH1 0x40 MLOAD PUSH32 0x8C379A000000000000000000000000000000000000000000000000000000000 DUP2 MSTORE PUSH1 0x4 ADD PUSH2 0x11B1 SWAP1 PUSH2 0x244F JUMP JUMPDEST PUSH1 0x40 MLOAD DUP1 SWAP2 SUB SWAP1 REVERT JUMPDEST PUSH2 0x11C4 DUP3 DUP5 PUSH2 0x1237 JUMP JUMPDEST DUP3 DUP2 PUSH1 0x1 ADD PUSH1 0x0 DUP3 DUP3 SLOAD PUSH2 0x11D8 SWAP2 SWAP1 PUSH2 0x1B84 JUMP JUMPDEST SWAP3 POP POP DUP2 SWAP1 SSTORE POP CALLER PUSH20 0xFFFFFFFFFFFFFFFFFFFFFFFFFFFFFFFFFFFFFFFF AND PUSH32 0x13657DEA4779547E9C75D813B2CC70322CD3808CD575DD2381C52BB5E932643E DUP6 DUP6 TIMESTAMP PUSH1 0x40 MLOAD PUSH2 0x1229 SWAP4 SWAP3 SWAP2 SWAP1 PUSH2 0x246F JUMP JUMPDEST PUSH1 0x40 MLOAD DUP1 SWAP2 SUB SWAP1 LOG2 POP POP POP POP JUMP JUMPDEST DUP2 PUSH1 0x6 ADD PUSH1 0x0 SWAP1 SLOAD SWAP1 PUSH2 0x100 EXP SWAP1 DIV PUSH1 0xFF AND ISZERO PUSH2 0x12D3 JUMPI PUSH3 0x15180 DUP3 PUSH1 0x3 ADD SLOAD PUSH2 0x1261 SWAP2 SWAP1 PUSH2 0x1B84 JUMP JUMPDEST TIMESTAMP GT ISZERO PUSH2 0x127C JUMPI PUSH1 0x0 DUP3 PUSH1 0x2 ADD DUP2 SWAP1 SSTORE POP TIMESTAMP DUP3 PUSH1 0x3 ADD DUP2 SWAP1 SSTORE POP JUMPDEST DUP2 PUSH1 0x1 ADD SLOAD DUP2 DUP4 PUSH1 0x2 ADD SLOAD PUSH2 0x1291 SWAP2 SWAP1 PUSH2 0x1B84 JUMP JUMPDEST GT ISZERO PUSH2 0x12D2 JUMPI PUSH1 0x40 MLOAD PUSH32 0x8C379A000000000000000000000000000000000000000000000000000000000 DUP2 MSTORE PUSH1 0x4 ADD PUSH2 0x12C9 SWAP1 PUSH2 0x250C JUMP JUMPDEST PUSH1 0x40 MLOAD DUP1 SWAP2 SUB SWAP1 REVERT JUMPDEST JUMPDEST DUP1 DUP3 PUSH1 0x2 ADD PUSH1 0x0 DUP3 DUP3 SLOAD PUSH2 0x12E7 SWAP2 SWAP1 PUSH2 0x1B84 JUMP JUMPDEST SWAP3 POP POP DUP2 SWAP1 SSTORE POP POP POP JUMP JUMPDEST PUSH1 0x0 PUSH1 0x40 MLOAD SWAP1 POP SWAP1 JUMP JUMPDEST PUSH1 0x0 DUP1 REVERT JUMPDEST PUSH1 0x0 DUP1 REVERT JUMPDEST PUSH1 0x0 DUP2 SWAP1 POP SWAP2 SWAP1 POP JUMP JUMPDEST PUSH2 0x1319 DUP2 PUSH2 0x1306 JUMP JUMPDEST DUP2 EQ PUSH2 0x1324 JUMPI PUSH1 0x0 DUP1 REVERT JUMPDEST POP JUMP JUMPDEST PUSH1 0x0 DUP2 CALLDATALOAD SWAP1 POP PUSH2 0x1336 DUP2 PUSH2 0x1310 JUMP JUMPDEST SWAP3 SWAP2 POP POP JUMP JUMPDEST PUSH1 0x0 PUSH1 0x20 DUP3 DUP5 SUB SLT ISZERO PUSH2 0x1352 JUMPI PUSH2 0x1351 PUSH2 0x12FC JUMP JUMPDEST JUMPDEST PUSH1 0x0 PUSH2 0x1360 DUP5 DUP3 DUP6 ADD PUSH2 0x1327 JUMP JUMPDEST SWAP2 POP POP SWAP3 SWAP2 POP POP JUMP JUMPDEST PUSH1 0x0 DUP2 ISZERO ISZERO SWAP1 POP SWAP2 SWAP1 POP JUMP JUMPDEST PUSH2 0x137E DUP2 PUSH2 0x1369 JUMP JUMPDEST DUP2 EQ PUSH2 0x1389 JUMPI PUSH1 0x0 DUP1 REVERT JUMPDEST POP JUMP JUMPDEST PUSH1 0x0 DUP2 CALLDATALOAD SWAP1 POP PUSH2 0x139B DUP2 PUSH2 0x1375 JUMP JUMPDEST SWAP3 SWAP2 POP POP JUMP JUMPDEST PUSH1 0x0 PUSH1 0x20 DUP3 DUP5 SUB SLT ISZERO PUSH2 0x13B7 JUMPI PUSH2 0x13B6 PUSH2 0x12FC JUMP JUMPDEST JUMPDEST PUSH1 0x0 PUSH2 0x13C5 DUP5 DUP3 DUP6 ADD PUSH2 0x138C JUMP JUMPDEST SWAP2 POP POP SWAP3 SWAP2 POP POP JUMP JUMPDEST PUSH1 0x0 DUP1 REVERT JUMPDEST PUSH1 0x0 DUP1 REVERT JUMPDEST PUSH1 0x0 PUSH1 0x1F NOT PUSH1 0x1F DUP4 ADD AND SWAP1 POP SWAP2 SWAP1 POP JUMP JUMPDEST PUSH32 0x4E487B7100000000000000000000000000000000000000000000000000000000 PUSH1 0x0 MSTORE PUSH1 0x41 PUSH1 0x4 MSTORE PUSH1 0x24 PUSH1 0x0 REVERT JUMPDEST PUSH2 0x1421 DUP3 PUSH2 0x13D8 JUMP JUMPDEST DUP2 ADD DUP2 DUP2 LT PUSH8 0xFFFFFFFFFFFFFFFF DUP3 GT OR ISZERO PUSH2 0x1440 JUMPI PUSH2 0x143F PUSH2 0x13E9 JUMP JUMPDEST JUMPDEST DUP1 PUSH1 0x40 MSTORE POP POP POP JUMP JUMPDEST PUSH1 0x0 PUSH2 0x1453 PUSH2 0x12F2 JUMP JUMPDEST SWAP1 POP PUSH2 0x145F DUP3 DUP3 PUSH2 0x1418 JUMP JUMPDEST SWAP2 SWAP1 POP JUMP JUMPDEST PUSH1 0x0 PUSH8 0xFFFFFFFFFFFFFFFF DUP3 GT ISZERO PUSH2 0x147F JUMPI PUSH2 0x147E PUSH2 0x13E9 JUMP JUMPDEST JUMPDEST PUSH2 0x1488 DUP3 PUSH2 0x13D8 JUMP JUMPDEST SWAP1 POP PUSH1 0x20 DUP2 ADD SWAP1 POP SWAP2 SWAP1 POP JUMP JUMPDEST DUP3 DUP2 DUP4 CALLDATACOPY PUSH1 0x0 DUP4 DUP4 ADD MSTORE POP POP POP JUMP JUMPDEST PUSH1 0x0 PUSH2 0x14B7 PUSH2 0x14B2 DUP5 PUSH2 0x1464 JUMP JUMPDEST PUSH2 0x1449 JUMP JUMPDEST SWAP1 POP DUP3 DUP2 MSTORE PUSH1 0x20 DUP2 ADD DUP5 DUP5 DUP5 ADD GT ISZERO PUSH2 0x14D3 JUMPI PUSH2 0x14D2 PUSH2 0x13D3 JUMP JUMPDEST JUMPDEST PUSH2 0x14DE DUP5 DUP3 DUP6 PUSH2 0x1495 JUMP JUMPDEST POP SWAP4 SWAP3 POP POP POP JUMP JUMPDEST PUSH1 0x0 DUP3 PUSH1 0x1F DUP4 ADD SLT PUSH2 0x14FB JUMPI PUSH2 0x14FA PUSH2 0x13CE JUMP JUMPDEST JUMPDEST DUP2 CALLDATALOAD PUSH2 0x150B DUP5 DUP3 PUSH1 0x20 DUP7 ADD PUSH2 0x14A4 JUMP JUMPDEST SWAP2 POP POP SWAP3 SWAP2 POP POP JUMP JUMPDEST PUSH1 0x0 DUP1 PUSH1 0x0 PUSH1 0x60 DUP5 DUP7 SUB SLT ISZERO PUSH2 0x152D JUMPI PUSH2 0x152C PUSH2 0x12FC JUMP JUMPDEST JUMPDEST PUSH1 0x0 DUP5 ADD CALLDATALOAD PUSH8 0xFFFFFFFFFFFFFFFF DUP2 GT ISZERO PUSH2 0x154B JUMPI PUSH2 0x154A PUSH2 0x1301 JUMP JUMPDEST JUMPDEST PUSH2 0x1557 DUP7 DUP3 DUP8 ADD PUSH2 0x14E6 JUMP JUMPDEST SWAP4 POP POP PUSH1 0x20 DUP5 ADD CALLDATALOAD PUSH8 0xFFFFFFFFFFFFFFFF DUP2 GT ISZERO PUSH2 0x1578 JUMPI PUSH2 0x1577 PUSH2 0x1301 JUMP JUMPDEST JUMPDEST PUSH2 0x1584 DUP7 DUP3 DUP8 ADD PUSH2 0x14E6 JUMP JUMPDEST SWAP3 POP POP PUSH1 0x40 PUSH2 0x1595 DUP7 DUP3 DUP8 ADD PUSH2 0x1327 JUMP JUMPDEST SWAP2 POP POP SWAP3 POP SWAP3 POP SWAP3 JUMP JUMPDEST PUSH1 0x0 PUSH20 0xFFFFFFFFFFFFFFFFFFFFFFFFFFFFFFFFFFFFFFFF DUP3 AND SWAP1 POP SWAP2 SWAP1 POP JUMP JUMPDEST PUSH1 0x0 PUSH2 0x15CA DUP3 PUSH2 0x159F JUMP JUMPDEST SWAP1 POP SWAP2 SWAP1 POP JUMP JUMPDEST PUSH2 0x15DA DUP2 PUSH2 0x15BF JUMP JUMPDEST DUP2 EQ PUSH2 0x15E5 JUMPI PUSH1 0x0 DUP1 REVERT JUMPDEST POP JUMP JUMPDEST PUSH1 0x0 DUP2 CALLDATALOAD SWAP1 POP PUSH2 0x15F7 DUP2 PUSH2 0x15D1 JUMP JUMPDEST SWAP3 SWAP2 POP POP JUMP JUMPDEST PUSH1 0x0 PUSH1 0x20 DUP3 DUP5 SUB SLT ISZERO PUSH2 0x1613 JUMPI PUSH2 0x1612 PUSH2 0x12FC JUMP JUMPDEST JUMPDEST PUSH1 0x0 PUSH2 0x1621 DUP5 DUP3 DUP6 ADD PUSH2 0x15E8 JUMP JUMPDEST SWAP2 POP POP SWAP3 SWAP2 POP POP JUMP JUMPDEST PUSH2 0x1633 DUP2 PUSH2 0x1306 JUMP JUMPDEST DUP3 MSTORE POP POP JUMP JUMPDEST PUSH1 0x0 PUSH1 0xA0 DUP3 ADD SWAP1 POP PUSH2 0x164E PUSH1 0x0 DUP4 ADD DUP9 PUSH2 0x162A JUMP JUMPDEST PUSH2 0x165B PUSH1 0x20 DUP4 ADD DUP8 PUSH2 0x162A JUMP JUMPDEST PUSH2 0x1668 PUSH1 0x40 DUP4 ADD DUP7 PUSH2 0x162A JUMP JUMPDEST PUSH2 0x1675 PUSH1 0x60 DUP4 ADD DUP6 PUSH2 0x162A JUMP JUMPDEST PUSH2 0x1682 PUSH1 0x80 DUP4 ADD DUP5 PUSH2 0x162A JUMP JUMPDEST SWAP7 SWAP6 POP POP POP POP POP POP JUMP JUMPDEST PUSH2 0x1695 DUP2 PUSH2 0x1369 JUMP JUMPDEST DUP3 MSTORE POP POP JUMP JUMPDEST PUSH1 0x0 PUSH1 0xA0 DUP3 ADD SWAP1 POP PUSH2 0x16B0 PUSH1 0x0 DUP4 ADD DUP9 PUSH2 0x162A JUMP JUMPDEST PUSH2 0x16BD PUSH1 0x20 DUP4 ADD DUP8 PUSH2 0x162A JUMP JUMPDEST PUSH2 0x16CA PUSH1 0x40 DUP4 ADD DUP7 PUSH2 0x162A JUMP JUMPDEST PUSH2 0x16D7 PUSH1 0x60 DUP4 ADD DUP6 PUSH2 0x162A JUMP JUMPDEST PUSH2 0x16E4 PUSH1 0x80 DUP4 ADD DUP5 PUSH2 0x168C JUMP JUMPDEST SWAP7 SWAP6 POP POP POP POP POP POP JUMP JUMPDEST PUSH1 0x0 PUSH1 0x20 DUP3 DUP5 SUB SLT ISZERO PUSH2 0x1704 JUMPI PUSH2 0x1703 PUSH2 0x12FC JUMP JUMPDEST JUMPDEST PUSH1 0x0 DUP3 ADD CALLDATALOAD PUSH8 0xFFFFFFFFFFFFFFFF DUP2 GT ISZERO PUSH2 0x1722 JUMPI PUSH2 0x1721 PUSH2 0x1301 JUMP JUMPDEST JUMPDEST PUSH2 0x172E DUP5 DUP3 DUP6 ADD PUSH2 0x14E6 JUMP JUMPDEST SWAP2 POP POP SWAP3 SWAP2 POP POP JUMP JUMPDEST PUSH1 0x0 DUP2 MLOAD SWAP1 POP SWAP2 SWAP1 POP JUMP JUMPDEST PUSH1 0x0 DUP3 DUP3 MSTORE PUSH1 0x20 DUP3 ADD SWAP1 POP SWAP3 SWAP2 POP POP JUMP JUMPDEST PUSH1 0x0 DUP2 SWAP1 POP PUSH1 0x20 DUP3 ADD SWAP1 POP SWAP2 SWAP1 POP JUMP JUMPDEST PUSH1 0x0 DUP2 MLOAD SWAP1 POP SWAP2 SWAP1 POP JUMP JUMPDEST PUSH1 0x0 DUP3 DUP3 MSTORE PUSH1 0x20 DUP3 ADD SWAP1 POP SWAP3 SWAP2 POP POP JUMP JUMPDEST PUSH1 0x0 JUMPDEST DUP4 DUP2 LT ISZERO PUSH2 0x179D JUMPI DUP1 DUP3 ADD MLOAD DUP2 DUP5 ADD MSTORE PUSH1 0x20 DUP2 ADD SWAP1 POP PUSH2 0x1782 JUMP JUMPDEST PUSH1 0x0 DUP5 DUP5 ADD MSTORE POP POP POP POP JUMP JUMPDEST PUSH1 0x0 PUSH2 0x17B4 DUP3 PUSH2 0x1763 JUMP JUMPDEST PUSH2 0x17BE DUP2 DUP6 PUSH2 0x176E JUMP JUMPDEST SWAP4 POP PUSH2 0x17CE DUP2 DUP6 PUSH1 0x20 DUP7 ADD PUSH2 0x177F JUMP JUMPDEST PUSH2 0x17D7 DUP2 PUSH2 0x13D8 JUMP JUMPDEST DUP5 ADD SWAP2 POP POP SWAP3 SWAP2 POP POP JUMP JUMPDEST PUSH1 0x0 PUSH2 0x17EE DUP4 DUP4 PUSH2 0x17A9 JUMP JUMPDEST SWAP1 POP SWAP3 SWAP2 POP POP JUMP JUMPDEST PUSH1 0x0 PUSH1 0x20 DUP3 ADD SWAP1 POP SWAP2 SWAP1 POP JUMP JUMPDEST PUSH1 0x0 PUSH2 0x180E DUP3 PUSH2 0x1737 JUMP JUMPDEST PUSH2 0x1818 DUP2 DUP6 PUSH2 0x1742 JUMP JUMPDEST SWAP4 POP DUP4 PUSH1 0x20 DUP3 MUL DUP6 ADD PUSH2 0x182A DUP6 PUSH2 0x1753 JUMP JUMPDEST DUP1 PUSH1 0x0 JUMPDEST DUP6 DUP2 LT ISZERO PUSH2 0x1866 JUMPI DUP5 DUP5 SUB DUP10 MSTORE DUP2 MLOAD PUSH2 0x1847 DUP6 DUP3 PUSH2 0x17E2 JUMP JUMPDEST SWAP5 POP PUSH2 0x1852 DUP4 PUSH2 0x17F6 JUMP JUMPDEST SWAP3 POP PUSH1 0x20 DUP11 ADD SWAP10 POP POP PUSH1 0x1 DUP2 ADD SWAP1 POP PUSH2 0x182E JUMP JUMPDEST POP DUP3 SWAP8 POP DUP8 SWAP6 POP POP POP POP POP POP SWAP3 SWAP2 POP POP JUMP JUMPDEST PUSH1 0x0 DUP2 MLOAD SWAP1 POP SWAP2 SWAP1 POP JUMP JUMPDEST PUSH1 0x0 DUP3 DUP3 MSTORE PUSH1 0x20 DUP3 ADD SWAP1 POP SWAP3 SWAP2 POP POP JUMP JUMPDEST PUSH1 0x0 DUP2 SWAP1 POP PUSH1 0x20 DUP3 ADD SWAP1 POP SWAP2 SWAP1 POP JUMP JUMPDEST PUSH2 0x18AD DUP2 PUSH2 0x1306 JUMP JUMPDEST DUP3 MSTORE POP POP JUMP JUMPDEST PUSH1 0x0 PUSH2 0x18BF DUP4 DUP4 PUSH2 0x18A4 JUMP JUMPDEST PUSH1 0x20 DUP4 ADD SWAP1 POP SWAP3 SWAP2 POP POP JUMP JUMPDEST PUSH1 0x0 PUSH1 0x20 DUP3 ADD SWAP1 POP SWAP2 SWAP1 POP JUMP JUMPDEST PUSH1 0x0 PUSH2 0x18E3 DUP3 PUSH2 0x1878 JUMP JUMPDEST PUSH2 0x18ED DUP2 DUP6 PUSH2 0x1883 JUMP JUMPDEST SWAP4 POP PUSH2 0x18F8 DUP4 PUSH2 0x1894 JUMP JUMPDEST DUP1 PUSH1 0x0 JUMPDEST DUP4 DUP2 LT ISZERO PUSH2 0x1929 JUMPI DUP2 MLOAD PUSH2 0x1910 DUP9 DUP3 PUSH2 0x18B3 JUMP JUMPDEST SWAP8 POP PUSH2 0x191B DUP4 PUSH2 0x18CB JUMP JUMPDEST SWAP3 POP POP PUSH1 0x1 DUP2 ADD SWAP1 POP PUSH2 0x18FC JUMP JUMPDEST POP DUP6 SWAP4 POP POP POP POP SWAP3 SWAP2 POP POP JUMP JUMPDEST PUSH1 0x0 PUSH1 0x80 DUP3 ADD SWAP1 POP DUP2 DUP2 SUB PUSH1 0x0 DUP4 ADD MSTORE PUSH2 0x1950 DUP2 DUP8 PUSH2 0x1803 JUMP JUMPDEST SWAP1 POP DUP2 DUP2 SUB PUSH1 0x20 DUP4 ADD MSTORE PUSH2 0x1964 DUP2 DUP7 PUSH2 0x18D8 JUMP JUMPDEST SWAP1 POP DUP2 DUP2 SUB PUSH1 0x40 DUP4 ADD MSTORE PUSH2 0x1978 DUP2 DUP6 PUSH2 0x18D8 JUMP JUMPDEST SWAP1 POP DUP2 DUP2 SUB PUSH1 0x60 DUP4 ADD MSTORE PUSH2 0x198C DUP2 DUP5 PUSH2 0x18D8 JUMP JUMPDEST SWAP1 POP SWAP6 SWAP5 POP POP POP POP POP JUMP JUMPDEST PUSH1 0x0 DUP1 PUSH1 0x40 DUP4 DUP6 SUB SLT ISZERO PUSH2 0x19AE JUMPI PUSH2 0x19AD PUSH2 0x12FC JUMP JUMPDEST JUMPDEST PUSH1 0x0 DUP4 ADD CALLDATALOAD PUSH8 0xFFFFFFFFFFFFFFFF DUP2 GT ISZERO PUSH2 0x19CC JUMPI PUSH2 0x19CB PUSH2 0x1301 JUMP JUMPDEST JUMPDEST PUSH2 0x19D8 DUP6 DUP3 DUP7 ADD PUSH2 0x14E6 JUMP JUMPDEST SWAP3 POP POP PUSH1 0x20 PUSH2 0x19E9 DUP6 DUP3 DUP7 ADD PUSH2 0x1327 JUMP JUMPDEST SWAP2 POP POP SWAP3 POP SWAP3 SWAP1 POP JUMP JUMPDEST PUSH1 0x0 DUP2 SWAP1 POP SWAP3 SWAP2 POP POP JUMP JUMPDEST PUSH32 0x4E65656473000000000000000000000000000000000000000000000000000000 PUSH1 0x0 DUP3 ADD MSTORE POP JUMP JUMPDEST PUSH1 0x0 PUSH2 0x1A34 PUSH1 0x5 DUP4 PUSH2 0x19F3 JUMP JUMPDEST SWAP2 POP PUSH2 0x1A3F DUP3 PUSH2 0x19FE JUMP JUMPDEST PUSH1 0x5 DUP3 ADD SWAP1 POP SWAP2 SWAP1 POP JUMP JUMPDEST PUSH1 0x0 PUSH2 0x1A55 DUP3 PUSH2 0x1A27 JUMP JUMPDEST SWAP2 POP DUP2 SWAP1 POP SWAP2 SWAP1 POP JUMP JUMPDEST PUSH32 0x4E487B7100000000000000000000000000000000000000000000000000000000 PUSH1 0x0 MSTORE PUSH1 0x11 PUSH1 0x4 MSTORE PUSH1 0x24 PUSH1 0x0 REVERT JUMPDEST PUSH1 0x0 PUSH2 0x1A99 DUP3 PUSH2 0x1306 JUMP JUMPDEST SWAP2 POP PUSH2 0x1AA4 DUP4 PUSH2 0x1306 JUMP JUMPDEST SWAP3 POP DUP3 DUP3 SUB SWAP1 POP DUP2 DUP2 GT ISZERO PUSH2 0x1ABC JUMPI PUSH2 0x1ABB PUSH2 0x1A5F JUMP JUMPDEST JUMPDEST SWAP3 SWAP2 POP POP JUMP JUMPDEST PUSH32 0x57616E7473000000000000000000000000000000000000000000000000000000 PUSH1 0x0 DUP3 ADD MSTORE POP JUMP JUMPDEST PUSH1 0x0 PUSH2 0x1AF8 PUSH1 0x5 DUP4 PUSH2 0x19F3 JUMP JUMPDEST SWAP2 POP PUSH2 0x1B03 DUP3 PUSH2 0x1AC2 JUMP JUMPDEST PUSH1 0x5 DUP3 ADD SWAP1 POP SWAP2 SWAP1 POP JUMP JUMPDEST PUSH1 0x0 PUSH2 0x1B19 DUP3 PUSH2 0x1AEB JUMP JUMPDEST SWAP2 POP DUP2 SWAP1 POP SWAP2 SWAP1 POP JUMP JUMPDEST PUSH32 0x536176696E677300000000000000000000000000000000000000000000000000 PUSH1 0x0 DUP3 ADD MSTORE POP JUMP JUMPDEST PUSH1 0x0 PUSH2 0x1B59 PUSH1 0x7 DUP4 PUSH2 0x19F3 JUMP JUMPDEST SWAP2 POP PUSH2 0x1B64 DUP3 PUSH2 0x1B23 JUMP JUMPDEST PUSH1 0x7 DUP3 ADD SWAP1 POP SWAP2 SWAP1 POP JUMP JUMPDEST PUSH1 0x0 PUSH2 0x1B7A DUP3 PUSH2 0x1B4C JUMP JUMPDEST SWAP2 POP DUP2 SWAP1 POP SWAP2 SWAP1 POP JUMP JUMPDEST PUSH1 0x0 PUSH2 0x1B8F DUP3 PUSH2 0x1306 JUMP JUMPDEST SWAP2 POP PUSH2 0x1B9A DUP4 PUSH2 0x1306 JUMP JUMPDEST SWAP3 POP DUP3 DUP3 ADD SWAP1 POP DUP1 DUP3 GT ISZERO PUSH2 0x1BB2 JUMPI PUSH2 0x1BB1 PUSH2 0x1A5F JUMP JUMPDEST JUMPDEST SWAP3 SWAP2 POP POP JUMP JUMPDEST PUSH1 0x0 DUP3 DUP3 MSTORE PUSH1 0x20 DUP3 ADD SWAP1 POP SWAP3 SWAP2 POP POP JUMP JUMPDEST PUSH32 0x496E73756666696369656E742066756E647320696E20746F74616C2062756467 PUSH1 0x0 DUP3 ADD MSTORE PUSH32 0x6574000000000000000000000000000000000000000000000000000000000000 PUSH1 0x20 DUP3 ADD MSTORE POP JUMP JUMPDEST PUSH1 0x0 PUSH2 0x1C25 PUSH1 0x22 DUP4 PUSH2 0x1BB8 JUMP JUMPDEST SWAP2 POP PUSH2 0x1C30 DUP3 PUSH2 0x1BC9 JUMP JUMPDEST PUSH1 0x40 DUP3 ADD SWAP1 POP SWAP2 SWAP1 POP JUMP JUMPDEST PUSH1 0x0 PUSH1 0x20 DUP3 ADD SWAP1 POP DUP2 DUP2 SUB PUSH1 0x0 DUP4 ADD MSTORE PUSH2 0x1C54 DUP2 PUSH2 0x1C18 JUMP JUMPDEST SWAP1 POP SWAP2 SWAP1 POP JUMP JUMPDEST PUSH1 0x0 PUSH2 0x1C66 DUP3 PUSH2 0x1306 JUMP JUMPDEST SWAP2 POP PUSH2 0x1C71 DUP4 PUSH2 0x1306 JUMP JUMPDEST SWAP3 POP DUP3 DUP3 MUL PUSH2 0x1C7F DUP2 PUSH2 0x1306 JUMP JUMPDEST SWAP2 POP DUP3 DUP3 DIV DUP5 EQ DUP4 ISZERO OR PUSH2 0x1C96 JUMPI PUSH2 0x1C95 PUSH2 0x1A5F JUMP JUMPDEST JUMPDEST POP SWAP3 SWAP2 POP POP JUMP JUMPDEST PUSH32 0x4E487B7100000000000000000000000000000000000000000000000000000000 PUSH1 0x0 MSTORE PUSH1 0x12 PUSH1 0x4 MSTORE PUSH1 0x24 PUSH1 0x0 REVERT JUMPDEST PUSH1 0x0 PUSH2 0x1CD7 DUP3 PUSH2 0x1306 JUMP JUMPDEST SWAP2 POP PUSH2 0x1CE2 DUP4 PUSH2 0x1306 JUMP JUMPDEST SWAP3 POP DUP3 PUSH2 0x1CF2 JUMPI PUSH2 0x1CF1 PUSH2 0x1C9D JUMP JUMPDEST JUMPDEST DUP3 DUP3 DIV SWAP1 POP SWAP3 SWAP2 POP POP JUMP JUMPDEST PUSH32 0x47656E6572616C00000000000000000000000000000000000000000000000000 PUSH1 0x0 DUP3 ADD MSTORE POP JUMP JUMPDEST PUSH1 0x0 PUSH2 0x1D33 PUSH1 0x7 DUP4 PUSH2 0x1BB8 JUMP JUMPDEST SWAP2 POP PUSH2 0x1D3E DUP3 PUSH2 0x1CFD JUMP JUMPDEST PUSH1 0x20 DUP3 ADD SWAP1 POP SWAP2 SWAP1 POP JUMP JUMPDEST POP JUMP JUMPDEST PUSH1 0x0 PUSH2 0x1D59 PUSH1 0x0 DUP4 PUSH2 0x1BB8 JUMP JUMPDEST SWAP2 POP PUSH2 0x1D64 DUP3 PUSH2 0x1D49 JUMP JUMPDEST PUSH1 0x0 DUP3 ADD SWAP1 POP SWAP2 SWAP1 POP JUMP JUMPDEST PUSH1 0x0 PUSH1 0x80 DUP3 ADD SWAP1 POP DUP2 DUP2 SUB PUSH1 0x0 DUP4 ADD MSTORE PUSH2 0x1D88 DUP2 PUSH2 0x1D26 JUMP JUMPDEST SWAP1 POP DUP2 DUP2 SUB PUSH1 0x20 DUP4 ADD MSTORE PUSH2 0x1D9B DUP2 PUSH2 0x1D4C JUMP JUMPDEST SWAP1 POP PUSH2 0x1DAA PUSH1 0x40 DUP4 ADD DUP6 PUSH2 0x162A JUMP JUMPDEST PUSH2 0x1DB7 PUSH1 0x60 DUP4 ADD DUP5 PUSH2 0x162A JUMP JUMPDEST SWAP4 SWAP3 POP POP POP JUMP JUMPDEST PUSH1 0x0 PUSH2 0x1DC9 DUP3 PUSH2 0x1763 JUMP JUMPDEST PUSH2 0x1DD3 DUP2 DUP6 PUSH2 0x19F3 JUMP JUMPDEST SWAP4 POP PUSH2 0x1DE3 DUP2 DUP6 PUSH1 0x20 DUP7 ADD PUSH2 0x177F JUMP JUMPDEST DUP1 DUP5 ADD SWAP2 POP POP SWAP3 SWAP2 POP POP JUMP JUMPDEST PUSH1 0x0 PUSH2 0x1DFB DUP3 DUP5 PUSH2 0x1DBE JUMP JUMPDEST SWAP2 POP DUP2 SWAP1 POP SWAP3 SWAP2 POP POP JUMP JUMPDEST PUSH32 0x496E73756666696369656E74207375622D6469766973696F6E2066756E647300 PUSH1 0x0 DUP3 ADD MSTORE POP JUMP JUMPDEST PUSH1 0x0 PUSH2 0x1E3C PUSH1 0x1F DUP4 PUSH2 0x1BB8 JUMP JUMPDEST SWAP2 POP PUSH2 0x1E47 DUP3 PUSH2 0x1E06 JUMP JUMPDEST PUSH1 0x20 DUP3 ADD SWAP1 POP SWAP2 SWAP1 POP JUMP JUMPDEST PUSH1 0x0 PUSH1 0x20 DUP3 ADD SWAP1 POP DUP2 DUP2 SUB PUSH1 0x0 DUP4 ADD MSTORE PUSH2 0x1E6B DUP2 PUSH2 0x1E2F JUMP JUMPDEST SWAP1 POP SWAP2 SWAP1 POP JUMP JUMPDEST PUSH1 0x0 PUSH2 0x1E7D DUP3 PUSH2 0x1763 JUMP JUMPDEST PUSH2 0x1E87 DUP2 DUP6 PUSH2 0x1BB8 JUMP JUMPDEST SWAP4 POP PUSH2 0x1E97 DUP2 DUP6 PUSH1 0x20 DUP7 ADD PUSH2 0x177F JUMP JUMPDEST PUSH2 0x1EA0 DUP2 PUSH2 0x13D8 JUMP JUMPDEST DUP5 ADD SWAP2 POP POP SWAP3 SWAP2 POP POP JUMP JUMPDEST PUSH1 0x0 PUSH1 0x80 DUP3 ADD SWAP1 POP DUP2 DUP2 SUB PUSH1 0x0 DUP4 ADD MSTORE PUSH2 0x1EC5 DUP2 DUP8 PUSH2 0x1E72 JUMP JUMPDEST SWAP1 POP DUP2 DUP2 SUB PUSH1 0x20 DUP4 ADD MSTORE PUSH2 0x1ED9 DUP2 DUP7 PUSH2 0x1E72 JUMP JUMPDEST SWAP1 POP PUSH2 0x1EE8 PUSH1 0x40 DUP4 ADD DUP6 PUSH2 0x162A JUMP JUMPDEST PUSH2 0x1EF5 PUSH1 0x60 DUP4 ADD DUP5 PUSH2 0x162A JUMP JUMPDEST SWAP6 SWAP5 POP POP POP POP POP JUMP JUMPDEST PUSH32 0x496E636F6D65206D7573742062652067726561746572207468616E207A65726F PUSH1 0x0 DUP3 ADD MSTORE POP JUMP JUMPDEST PUSH1 0x0 PUSH2 0x1F34 PUSH1 0x20 DUP4 PUSH2 0x1BB8 JUMP JUMPDEST SWAP2 POP PUSH2 0x1F3F DUP3 PUSH2 0x1EFE JUMP JUMPDEST PUSH1 0x20 DUP3 ADD SWAP1 POP SWAP2 SWAP1 POP JUMP JUMPDEST PUSH1 0x0 PUSH1 0x20 DUP3 ADD SWAP1 POP DUP2 DUP2 SUB PUSH1 0x0 DUP4 ADD MSTORE PUSH2 0x1F63 DUP2 PUSH2 0x1F27 JUMP JUMPDEST SWAP1 POP SWAP2 SWAP1 POP JUMP JUMPDEST PUSH32 0x4E487B7100000000000000000000000000000000000000000000000000000000 PUSH1 0x0 MSTORE PUSH1 0x22 PUSH1 0x4 MSTORE PUSH1 0x24 PUSH1 0x0 REVERT JUMPDEST PUSH1 0x0 PUSH1 0x2 DUP3 DIV SWAP1 POP PUSH1 0x1 DUP3 AND DUP1 PUSH2 0x1FB1 JUMPI PUSH1 0x7F DUP3 AND SWAP2 POP JUMPDEST PUSH1 0x20 DUP3 LT DUP2 SUB PUSH2 0x1FC4 JUMPI PUSH2 0x1FC3 PUSH2 0x1F6A JUMP JUMPDEST JUMPDEST POP SWAP2 SWAP1 POP JUMP JUMPDEST PUSH1 0x0 DUP2 SWAP1 POP DUP2 PUSH1 0x0 MSTORE PUSH1 0x20 PUSH1 0x0 KECCAK256 SWAP1 POP SWAP2 SWAP1 POP JUMP JUMPDEST PUSH1 0x0 PUSH1 0x20 PUSH1 0x1F DUP4 ADD DIV SWAP1 POP SWAP2 SWAP1 POP JUMP JUMPDEST PUSH1 0x0 DUP3 DUP3 SHL SWAP1 POP SWAP3 SWAP2 POP POP JUMP JUMPDEST PUSH1 0x0 PUSH1 0x8 DUP4 MUL PUSH2 0x202C PUSH32 0xFFFFFFFFFFFFFFFFFFFFFFFFFFFFFFFFFFFFFFFFFFFFFFFFFFFFFFFFFFFFFFFF DUP3 PUSH2 0x1FEF JUMP JUMPDEST PUSH2 0x2036 DUP7 DUP4 PUSH2 0x1FEF JUMP JUMPDEST SWAP6 POP DUP1 NOT DUP5 AND SWAP4 POP DUP1 DUP7 AND DUP5 OR SWAP3 POP POP POP SWAP4 SWAP3 POP POP POP JUMP JUMPDEST PUSH1 0x0 DUP2 SWAP1 POP SWAP2 SWAP1 POP JUMP JUMPDEST PUSH1 0x0 PUSH2 0x2073 PUSH2 0x206E PUSH2 0x2069 DUP5 PUSH2 0x1306 JUMP JUMPDEST PUSH2 0x204E JUMP JUMPDEST PUSH2 0x1306 JUMP JUMPDEST SWAP1 POP SWAP2 SWAP1 POP JUMP JUMPDEST PUSH1 0x0 DUP2 SWAP1 POP SWAP2 SWAP1 POP JUMP JUMPDEST PUSH2 0x208D DUP4 PUSH2 0x2058 JUMP JUMPDEST PUSH2 0x20A1 PUSH2 0x2099 DUP3 PUSH2 0x207A JUMP JUMPDEST DUP5 DUP5 SLOAD PUSH2 0x1FFC JUMP JUMPDEST DUP3 SSTORE POP POP POP POP JUMP JUMPDEST PUSH1 0x0 SWAP1 JUMP JUMPDEST PUSH2 0x20B6 PUSH2 0x20A9 JUMP JUMPDEST PUSH2 0x20C1 DUP2 DUP5 DUP5 PUSH2 0x2084 JUMP JUMPDEST POP POP POP JUMP JUMPDEST JUMPDEST DUP2 DUP2 LT ISZERO PUSH2 0x20E5 JUMPI PUSH2 0x20DA PUSH1 0x0 DUP3 PUSH2 0x20AE JUMP JUMPDEST PUSH1 0x1 DUP2 ADD SWAP1 POP PUSH2 0x20C7 JUMP JUMPDEST POP POP JUMP JUMPDEST PUSH1 0x1F DUP3 GT ISZERO PUSH2 0x212A JUMPI PUSH2 0x20FB DUP2 PUSH2 0x1FCA JUMP JUMPDEST PUSH2 0x2104 DUP5 PUSH2 0x1FDF JUMP JUMPDEST DUP2 ADD PUSH1 0x20 DUP6 LT ISZERO PUSH2 0x2113 JUMPI DUP2 SWAP1 POP JUMPDEST PUSH2 0x2127 PUSH2 0x211F DUP6 PUSH2 0x1FDF JUMP JUMPDEST DUP4 ADD DUP3 PUSH2 0x20C6 JUMP JUMPDEST POP POP JUMPDEST POP POP POP JUMP JUMPDEST PUSH1 0x0 DUP3 DUP3 SHR SWAP1 POP SWAP3 SWAP2 POP POP JUMP JUMPDEST PUSH1 0x0 PUSH2 0x214D PUSH1 0x0 NOT DUP5 PUSH1 0x8 MUL PUSH2 0x212F JUMP JUMPDEST NOT DUP1 DUP4 AND SWAP2 POP POP SWAP3 SWAP2 POP POP JUMP JUMPDEST PUSH1 0x0 PUSH2 0x2166 DUP4 DUP4 PUSH2 0x213C JUMP JUMPDEST SWAP2 POP DUP3 PUSH1 0x2 MUL DUP3 OR SWAP1 POP SWAP3 SWAP2 POP POP JUMP JUMPDEST PUSH2 0x217F DUP3 PUSH2 0x1763 JUMP JUMPDEST PUSH8 0xFFFFFFFFFFFFFFFF DUP2 GT ISZERO PUSH2 0x2198 JUMPI PUSH2 0x2197 PUSH2 0x13E9 JUMP JUMPDEST JUMPDEST PUSH2 0x21A2 DUP3 SLOAD PUSH2 0x1F99 JUMP JUMPDEST PUSH2 0x21AD DUP3 DUP3 DUP6 PUSH2 0x20E9 JUMP JUMPDEST PUSH1 0x0 PUSH1 0x20 SWAP1 POP PUSH1 0x1F DUP4 GT PUSH1 0x1 DUP2 EQ PUSH2 0x21E0 JUMPI PUSH1 0x0 DUP5 ISZERO PUSH2 0x21CE JUMPI DUP3 DUP8 ADD MLOAD SWAP1 POP JUMPDEST PUSH2 0x21D8 DUP6 DUP3 PUSH2 0x215A JUMP JUMPDEST DUP7 SSTORE POP PUSH2 0x2240 JUMP JUMPDEST PUSH1 0x1F NOT DUP5 AND PUSH2 0x21EE DUP7 PUSH2 0x1FCA JUMP JUMPDEST PUSH1 0x0 JUMPDEST DUP3 DUP2 LT ISZERO PUSH2 0x2216 JUMPI DUP5 DUP10 ADD MLOAD DUP3 SSTORE PUSH1 0x1 DUP3 ADD SWAP2 POP PUSH1 0x20 DUP6 ADD SWAP5 POP PUSH1 0x20 DUP2 ADD SWAP1 POP PUSH2 0x21F1 JUMP JUMPDEST DUP7 DUP4 LT ISZERO PUSH2 0x2233 JUMPI DUP5 DUP10 ADD MLOAD PUSH2 0x222F PUSH1 0x1F DUP10 AND DUP3 PUSH2 0x213C JUMP JUMPDEST DUP4 SSTORE POP JUMPDEST PUSH1 0x1 PUSH1 0x2 DUP9 MUL ADD DUP9 SSTORE POP POP POP JUMPDEST POP POP POP POP POP POP JUMP JUMPDEST PUSH32 0x4E487B7100000000000000000000000000000000000000000000000000000000 PUSH1 0x0 MSTORE PUSH1 0x32 PUSH1 0x4 MSTORE PUSH1 0x24 PUSH1 0x0 REVERT JUMPDEST PUSH1 0x0 PUSH2 0x2282 DUP3 PUSH2 0x1306 JUMP JUMPDEST SWAP2 POP PUSH32 0xFFFFFFFFFFFFFFFFFFFFFFFFFFFFFFFFFFFFFFFFFFFFFFFFFFFFFFFFFFFFFFFF DUP3 SUB PUSH2 0x22B4 JUMPI PUSH2 0x22B3 PUSH2 0x1A5F JUMP JUMPDEST JUMPDEST PUSH1 0x1 DUP3 ADD SWAP1 POP SWAP2 SWAP1 POP JUMP JUMPDEST PUSH32 0x4D697373696E672063617465676F727900000000000000000000000000000000 PUSH1 0x0 DUP3 ADD MSTORE POP JUMP JUMPDEST PUSH1 0x0 PUSH2 0x22F5 PUSH1 0x10 DUP4 PUSH2 0x1BB8 JUMP JUMPDEST SWAP2 POP PUSH2 0x2300 DUP3 PUSH2 0x22BF JUMP JUMPDEST PUSH1 0x20 DUP3 ADD SWAP1 POP SWAP2 SWAP1 POP JUMP JUMPDEST PUSH1 0x0 PUSH1 0x20 DUP3 ADD SWAP1 POP DUP2 DUP2 SUB PUSH1 0x0 DUP4 ADD MSTORE PUSH2 0x2324 DUP2 PUSH2 0x22E8 JUMP JUMPDEST SWAP1 POP SWAP2 SWAP1 POP JUMP JUMPDEST PUSH32 0x4D697373696E67207375622D6469766973696F6E206E616D6500000000000000 PUSH1 0x0 DUP3 ADD MSTORE POP JUMP JUMPDEST PUSH1 0x0 PUSH2 0x2361 PUSH1 0x19 DUP4 PUSH2 0x1BB8 JUMP JUMPDEST SWAP2 POP PUSH2 0x236C DUP3 PUSH2 0x232B JUMP JUMPDEST PUSH1 0x20 DUP3 ADD SWAP1 POP SWAP2 SWAP1 POP JUMP JUMPDEST PUSH1 0x0 PUSH1 0x20 DUP3 ADD SWAP1 POP DUP2 DUP2 SUB PUSH1 0x0 DUP4 ADD MSTORE PUSH2 0x2390 DUP2 PUSH2 0x2354 JUMP JUMPDEST SWAP1 POP SWAP2 SWAP1 POP JUMP JUMPDEST PUSH32 0x416D6F756E7420657863656564732063617465676F7279206275646765740000 PUSH1 0x0 DUP3 ADD MSTORE POP JUMP JUMPDEST PUSH1 0x0 PUSH2 0x23CD PUSH1 0x1E DUP4 PUSH2 0x1BB8 JUMP JUMPDEST SWAP2 POP PUSH2 0x23D8 DUP3 PUSH2 0x2397 JUMP JUMPDEST PUSH1 0x20 DUP3 ADD SWAP1 POP SWAP2 SWAP1 POP JUMP JUMPDEST PUSH1 0x0 PUSH1 0x20 DUP3 ADD SWAP1 POP DUP2 DUP2 SUB PUSH1 0x0 DUP4 ADD MSTORE PUSH2 0x23FC DUP2 PUSH2 0x23C0 JUMP JUMPDEST SWAP1 POP SWAP2 SWAP1 POP JUMP JUMPDEST PUSH32 0x496E73756666696369656E742063617465676F72792066756E64730000000000 PUSH1 0x0 DUP3 ADD MSTORE POP JUMP JUMPDEST PUSH1 0x0 PUSH2 0x2439 PUSH1 0x1B DUP4 PUSH2 0x1BB8 JUMP JUMPDEST SWAP2 POP PUSH2 0x2444 DUP3 PUSH2 0x2403 JUMP JUMPDEST PUSH1 0x20 DUP3 ADD SWAP1 POP SWAP2 SWAP1 POP JUMP JUMPDEST PUSH1 0x0 PUSH1 0x20 DUP3 ADD SWAP1 POP DUP2 DUP2 SUB PUSH1 0x0 DUP4 ADD MSTORE PUSH2 0x2468 DUP2 PUSH2 0x242C JUMP JUMPDEST SWAP1 POP SWAP2 SWAP1 POP JUMP JUMPDEST PUSH1 0x0 PUSH1 0x80 DUP3 ADD SWAP1 POP DUP2 DUP2 SUB PUSH1 0x0 DUP4 ADD MSTORE PUSH2 0x2489 DUP2 DUP7 PUSH2 0x1E72 JUMP JUMPDEST SWAP1 POP DUP2 DUP2 SUB PUSH1 0x20 DUP4 ADD MSTORE PUSH2 0x249C DUP2 PUSH2 0x1D4C JUMP JUMPDEST SWAP1 POP PUSH2 0x24AB PUSH1 0x40 DUP4 ADD DUP6 PUSH2 0x162A JUMP JUMPDEST PUSH2 0x24B8 PUSH1 0x60 DUP4 ADD DUP5 PUSH2 0x162A JUMP JUMPDEST SWAP5 SWAP4 POP POP POP POP JUMP JUMPDEST PUSH32 0x4461696C79206C696D6974206578636565646564000000000000000000000000 PUSH1 0x0 DUP3 ADD MSTORE POP JUMP JUMPDEST PUSH1 0x0 PUSH2 0x24F6 PUSH1 0x14 DUP4 PUSH2 0x1BB8 JUMP JUMPDEST SWAP2 POP PUSH2 0x2501 DUP3 PUSH2 0x24C0 JUMP JUMPDEST PUSH1 0x20 DUP3 ADD SWAP1 POP SWAP2 SWAP1 POP JUMP JUMPDEST PUSH1 0x0 PUSH1 0x20 DUP3 ADD SWAP1 POP DUP2 DUP2 SUB PUSH1 0x0 DUP4 ADD MSTORE PUSH2 0x2525 DUP2 PUSH2 0x24E9 JUMP JUMPDEST SWAP1 POP SWAP2 SWAP1 POP JUMP INVALID LOG2 PUSH5 0x6970667358 0x22 SLT KECCAK256 0xBA SWAP9 0xD3 0x21 EQ TIMESTAMP BLOCKHASH 0xDB 0xDD DUP15 0xD MULMOD CALLDATACOPY 0xE8 0xD8 0xC PUSH5 0x94C0FF9069 DUP6 0xBD 0xAF 0xC2 DUP7 CALLER SWAP11 0xD4 SSTORE PUSH30 0x64736F6C6343000812003300000000000000000000000000000000000000 "},"methodIdentifiers":{"addSubDivision(string,string,uint256)":"b6bb6f09","getBudgetSummary(address)":"608937a6","getSubDivisions(string)":"a4a50d29","setInitialBudget(uint256)":"70f2e4a9","spendFromCategory(string,uint256)":"fdfaf8b9","spendFromGeneral(uint256)":"052bc245","spendFromSubDivision(string,string,uint256)":"38b54df8","toggleStrictMode(bool)":"35186088","userBudgets(address)":"7fa54d6e"}}}}}